:10000000B0210020951400008D1500008D15000012
:1000100000000000000000000000000000000000E0
:100020000000000000000000000000008D1500002E
:1000300000000000000000008D1500008D1500007C
:100040008D1500008D1500008D1500008D15000028
:100050008D1500008D1500008D1500008D15000018
:100060008D1500008D1500008D1500008D15000008
:100070008D1500008D1500008D1500008D150000F8
:100080008D1500008D1500008D1500008D150000E8
:100090008D15000000000000000000008D1500001C
:1000A0008D1500008D1500008D1500008D150000C8
:1000B0000000000010B5064C2378002B07D1054B3B
:1000C000002B02D0044800E000BF0123237010BDC4
:1000D000E40000200000000064C90000084B10B5D7
:1000E000002B03D00749084800E000BF0748036819
:1000F000002B00D110BD064B002BFBD09847F9E731
:1001000000000000E800002064C9000064C900008D
:100110000000000080B584B000AF0200FB1D1A7023
:10012000FB1D1B789BB2094A19001000084B984729
:1001300003001A000E23FB181A800E23FB181B88DD
:10014000DBB21800BD4604B080BDC04600100042BE
:10015000250C000090B583B000AF0400080011002A
:10016000FB1D221C1A70BB1D021C1A707B1D0A1C71
:100170001A7000210E200D4B9847FB1D1B781800AC
:100180000B4B9847BB1D1B781800094B98477B1DEC
:100190001B781800064B984701210E20034B984707
:1001A00001231800BD4603B090BDC046410B0000BE
:1001B0001501000080B584B000AF78600A00FB1C18
:1001C0001A707B68802212041343FB6000210E200A
:1001D000104B9847FB681B0CDBB218000E4B98477E
:1001E000FB681B0ADBB218000B4B9847FB68DBB2BD
:1001F0001800094B9847FB1C1B781800064B9847C2
:1002000001210E20034B984701231800BD4604B07E
:1002100080BDC046410B00001501000080B584B0D0
:1002200000AF78600A00BB1C1A807B688022120431
:100230001343FB6000210E20144B9847FB681B0CF6
:10024000DBB21800124B9847FB681B0ADBB21800A0
:100250000F4B9847FB68DBB218000D4B9847BB1C4F
:100260001B88DBB218000A4B9847BB1C1B881B0A73
:100270009BB2DBB21800064B984701210E20034BBE
:10028000984701231800BD4604B080BD410B000013
:100290001501000080B588B000AF786039607B68D8
:1002A000802212041343BB61BB691B0CDAB20C231E
:1002B000FB181A70BB691B0ADAB20C23FB185A70C0
:1002C000BB69DAB20C23FB189A703B68DAB20C23D4
:1002D000FB18DA703B681B0ADAB20C23FB181A71A0
:1002E0003B681B0CDAB20C23FB185A713B681B0EDF
:1002F000DAB20C23FB189A7100210E20134B984799
:100300000023FB6116E0124B0C22B918FA698A1817
:1003100012789A62C0460E4B1B7EDBB21A00022393
:100320001340F8D00A4B9A6A1723FB181A70FB691E
:100330000133FB61FB69062BE5DD01210E20034B38
:10034000984701231800BD4608B080BD410B00004E
:100350000010004290B585B000AF78607B68FB600C
:1003600000210E201B4B9847FB681B0CDBB21800CA
:10037000194B9847FB681B0ADBB21800164B9847CD
:10038000FB68DBB21800144B98470020124B9847CB
:100390000B23FC180020104B9847030023700A23FE
:1003A000FC1800200C4B98470300237001210E20FD
:1003B000084B98470A23FB181B789BB21B029AB282
:1003C0000B23FB181B789BB2D3189BB21800BD46B9
:1003D00005B090BD410B00001501000080B584B050
:1003E00000AF78600A00BB1C1A80BB1C1A887B68AF
:1003F000D318FB60FB68064A934204D9FB68054AA0
:1004000094466344FB60FB681800BD4604B080BDA1
:10041000FF0F000000F0FFFF80B584B000AF0200C6
:10042000BB1D1A800E4B18000E4B984703001A0094
:10043000BB1D1B889B1A9AB20E23FB181205120DC6
:100440001A800C23FB180E22BA18128806498A1A41
:100450001A800C23FB181B881800BD4604B080BD11
:10046000F820300055030000FC0F000090B585B067
:1004700000AF78600A00BB1C1A807B689BB20E221A
:10048000BC181800074B9847030023800E23FA1866
:10049000BB1C12881B889A42EFD3C046BD4605B0EC
:1004A00090BDC0461904000080B582B000AF0200C4
:1004B000BB1D1A803B1D0A1C1A80BA1D3B1D1288E9
:1004C0001B88D3189AB2BB1D1205120D1A80BB1DD2
:1004D0001B8803339AB2BB1D07490A401A80BB1D13
:1004E0001B88064A19001000054B9847BB1D1B8846
:1004F0001800BD4602B080BDFC0F0000FC2030009B
:100500001D02000090B583B000AFBC1D0F4B18005A
:100510000F4B9847030023803C1D0E4B18000C4BDB
:100520009847030023803A1DBB1D12881B889A42FE
:10053000EBD1BC1C074B1800054B984703002380E8
:10054000BB1C1B881800BD4603B090BDF8203000CE
:1005500055030000FC20300090B589B000AFF86072
:1005600008007A6019000A23FB18021C1A8008236D
:10057000FB180A1C1A800023FB610023BB61FB6887
:100580008022120413437B610823FB181B88FB6144
:100590000A23FB181B881800424B984703001A1EB9
:1005A000FB699A4207D20A23FB181B8818003D4BAF
:1005B00098470300FB610A23FB181B88FA6992B273
:1005C00011001800384B984700210E20374B9847F0
:1005D0000A23FB181B88C22292039446634480229C
:1005E000120413437B617B691B0CDBB21800304B98
:1005F00098477B691B0ADBB218002D4B98477B6933
:10060000DBB218002A4B98470023BB6115E0294A4A
:100610007B68591C79601B789362C046254B1B7E12
:10062000DBB21A0002231340F8D0224B9A6A13233C
:10063000FB181A70BB690133BB61FB695A1EFA6172
:10064000002BE4D1BB69FB6101210E20174B9847B9
:10065000FB699AB20A23FC180A23FB181B881100B5
:100660001800154B9847030023800A23FC18134BEE
:10067000984703002380FB699AB20823FB180821DE
:10068000791809888A1A1A800823FB181B88002BFE
:1006900000D079E70A23FB181B881800BD4609B073
:1006A00090BDC046190400006D040000410B00001D
:1006B0001501000000100042A9040000050500001B
:1006C000B0B58AB000AFF860B9607A600023BB6152
:1006D00000237B6100233B620023FB61474B180032
:1006E000474B98470300BB61464B1800444B984763
:1006F00003007B617A69BB699A42EFD12623FB181C
:100700007A691A802623FB181B88C22292039A1842
:10071000DE235B42190010003B4B98472623FB1851
:100720001B8804211800394B984702002623FB1828
:100730001A802623FB181B88C22292039446634426
:10074000BA6811001800304B98472623FB181B8805
:10075000042118002D4B984702002623FB181A800D
:100760000023FB6126E07B68294A934203D980235A
:100770009B013B6201E07B683B622623FB181B88E0
:10078000C22292039818FA68FB69D2183B6A9DB29C
:100790002623FC182623FB1819882B001D4DA8477B
:1007A00003002380FA693B6AD318FB617A683B6ACD
:1007B000D31A7B607B68002BD5D12623FB181B88BE
:1007C000104A19001000144B98470C4B18000C4BA2
:1007D00098470300BB610B4B1800094B9847030077
:1007E0007B617A69BB699A42EFD12623FB187A694B
:1007F0001A80C0461800BD460AB0B0BDF8203000CF
:1008000055030000FC20300095020000DD030000CD
:10081000FF1F0000590500001D02000080B500AF59
:10082000024B9847C046BD4680BDC046750C0000CF
:1008300080B500AF024B9847C046BD4680BDC0465C
:10084000C90C000080B500AF054B5B78DBB25BB232
:10085000002B01DA012300E000231800BD4680BD13
:10086000000C004080B584B000AF78600023FB60CE
:100870000023BB607B685B781B027A6812781343A5
:100880001A007B685B681343FB607B681B891B0253
:100890007A6812781343BB60C0460B4B9847031E1F
:1008A000FBD10A4B98470A4BBA689A60C046064B80
:1008B0009847031EFBD1064BFA685A60054B9847D0
:1008C000C046BD4604B080BD450800001D080000BC
:1008D000000C00403108000080B584B000AF7860A3
:1008E0000E23FB1800221A807B685B781B021AB269
:1008F0007B681B781BB213431AB27B685B881BB200
:1009000013431AB20E23FB181A80064B9847064A67
:100910000E23FB181B885380044B9847C046BD46E6
:1009200004B080BD1D080000000C0040310800002C
:1009300080B582B000AF00237B600CE07A681300C2
:100940005B009B189B000F4A9B1818000E4B9847A2
:100950007B6801337B607B68082BEFDD00237B60C5
:1009600009E07B689A00094BD3181800084B984798
:100970007B6801337B607B68172BF2DDC046BD4688
:1009800002B080BD00000020650800006C0000205F
:10099000D908000080B584B000AF0200FB1D1A70BA
:1009A0000023FB60FB1D1B782022134001D0002395
:1009B0001BE0FB1D1B78C0221340402B0BD002DC38
:1009C000002B05D010E0602B08D0802B09D00BE065
:1009D000084BFB6008E0084BFB6005E0074BFB6041
:1009E00002E0074BFB60C046FB681800BD4604B040
:1009F00080BDC046004400418044004100450041A4
:100A00008045004180B586B000AF786000237B61EF
:100A10001223FB1800221A801023FB1800221A80D0
:100A20007B68002B02D101235B4281E07B681B784D
:100A30001800414B98470300FB60FB68002B02D174
:100A400001235B4274E07B681B781A001F2313406C
:100A500001229A4013007B611223FB187A691A80E5
:100A60007B691A0C1023FB181A8000237B617B68BA
:100A70005B78012B08D17B68DB781A067B6913430E
:100A80002E4A13437B6126E07B689B781A00402343
:100A9000134001D1002201E080239A027B689B78F9
:100AA000190020230B4001D1002301E08023DB0249
:100AB0001A437B689B78190010230B4001D1002357
:100AC00001E08023DB0313431A007B691343802278
:100AD000D20513437B61FB681B687A68927852B237
:100AE000D2B2D209D2B211007A68127810001F2255
:100AF000024091400A001A43FB681A607B681B7829
:100B00001A001F2313400F2B0ADD1023FB181A882D
:100B10007B691343802212061A43FB689A6206E03F
:100B20001223FB181A887B691A43FB689A62002318
:100B30001800BD4606B080BD9509000000000150B8
:100B400080B584B000AF0200FB1D1A70BB1D0A1CEB
:100B50001A70FB1D1B781800124B98470300FB60AE
:100B6000FB68002B02D101235B4216E00123BB602E
:100B7000FB1D1B781F221340BA689A401300BB600C
:100B8000BB1D1B780122134003D0FB68BA689A6131
:100B900002E0FB68BA685A6100231800BD4604B041
:100BA00080BDC0469509000080B582B000AF786076
:100BB0007B681B6802221A437B681A6001231800B5
:100BC000BD4602B080BDC04680B584B000AFF860BD
:100BD000B9607A601A00FB1C1A70FB68074A1A6039
:100BE000FB68802292025A60FB68FA1C12781A7322
:100BF00001231800BD4604B080BDC0460C00300083
:100C000080B582B000AF78607B681B7EDBB21A00D3
:100C1000022313405A1E9341DBB21800BD4602B0B6
:100C200080BDC04680B584B000AF78600A00BB1CB0
:100C30001A80BB1C1B88DB05DA0D7B689A62C046F4
:100C40007B6818000A4B984703001A0001235340A1
:100C5000DBB2002BF4D17B689A6A0F23FB181A7061
:100C60000F23FB181B781800BD4604B080BDC0469A
:100C7000010C000080B582B000AF104B1B68002B48
:100C800012D1EFF310837B607B68002B09D172B621
:100C9000BFF35F8F0A4B00221A700A4B01221A70B1
:100CA00002E0084B00221A70044B1B685A1C034BCD
:100CB0001A60C046BD4602B080BDC046000100209B
:100CC000CC0000200401002080B500AF0B4B1B6856
:100CD0005A1E0A4B1A60094B1B68002B0AD1084B9D
:100CE0001B78DBB2002B05D0064B01221A70BFF334
:100CF0005F8F62B6C046BD4680BDC0460001002081
:100D000004010020CC00002080B582B000AF7860E4
:100D10007B6801225A607B6800225A707B68062239
:100D20001A707B6800221A727B6800225A72C046D1
:100D3000BD4602B080BDC04680B582B000AF7860CD
:100D40007B6803221A707B6800225A707B6801223C
:100D50009A70C046BD4602B080BDC04680B582B024
:100D600000AF0200FB1D1A70034AFB1D1B781372B3
:100D7000C046BD4602B080BD0004004080B582B0D0
:100D800000AF0200FB1D1A70BB1D0A1C1A70FB1D70
:100D90001B78012B08D0022B0BD0002B0ED10B4A55
:100DA000BB1D1B7853720BE0084ABB1D1B78937266
:100DB00006E0064ABB1D1B78D37201E0172300E052
:100DC00000231800BD4602B080BDC04600040040AC
:100DD00080B582B000AF0200FB1D1A70084AFB1DEF
:100DE0001B780F210B40D9B253680F2001404900F6
:100DF0001E2083430B435360C046BD4602B080BDF6
:100E00000040004180B500AFC046044BDB681022B3
:100E10001340FAD0C046BD4680BDC0460008004021
:100E200080B500AF0C4B02229A840C4B98470A4ABB
:100E30000B4B9B68D362084A094B5B689362064B75
:100E400000229A84054B9847034A054B1B689BB2C6
:100E50009384C046BD4680BD00080040050E0000DA
:100E60000801002080B584B000AF78601A4B1B6A7F
:100E7000FB607B681B781A1C03231340DAB20D2336
:100E8000FB1803210A4010001A7803218A43111C21
:100E9000021C0A431A707B689A780C23FB18D00155
:100EA0001A787F210A40111C021C0A431A707B68C1
:100EB0005A780C23FB1801210A4090011A7840212E
:100EC0008A43111C021C0A431A70034BFA681A6207
:100ED000C046BD4604B080BD0008004080B582B069
:100EE00000AF78607B681B7A9B021B041A0C7B683E
:100EF0005B899B059B0D1A432A4B5A607B689A7944
:100F00007B68DB791343DBB21A007B685B88134391
:100F10007A6892881A437B685B78DB011A43214B1D
:100F20001A607B681B78042B16D17B681B7B9B06A1
:100F30001A007B68DB891B0419001B4B0B40134311
:100F40007A68128A1A43174B9A60164B1B687A68A4
:100F500012781A43134B1A607B681B78202B1CD124
:100F60007B681B7B9B061A007B68DB891B041900CE
:100F70000D4B0B4013437A68128A1A43094B9A604F
:100F8000084B1B687A68127804210A43D2B21343D3
:100F90008022D2001A43034B1A60C046BD4602B0FD
:100FA00080BDC046080100200000FF0380B582B06C
:100FB00000AF0200FB1D1A70FB1D1B78082B3BD8ED
:100FC0009A00214BD3181B689F46204B1F4A126A78
:100FD00002210A431A62002331E01C4B1B4A92692A
:100FE00002210A439A6129E0184A184B1B8A9BB2D6
:100FF00002210B439BB2138220E0144A134B9B8ABD
:101000009BB202210B439BB2938217E0104B1B68EB
:1010100002221A430E4B1A600E4B98470EE00B4A01
:101020000A494423CB5CDBB202210B43D9B24423EF
:10103000D15403E0002302E0172300E0002318004E
:10104000BD4602B080BDC046841E000000080040BE
:1010500008010020210E000080B582B000AF3B00E7
:1010600001221A7000237B6009E07B68DBB23A0042
:1010700011001800054B98477B6801337B607B6843
:10108000242BF2D9C046BD4602B080BDB913000082
:1010900080B5A0B000AF274BC222D2009A600020DA
:1010A000254B9847254B98477C23FB181800244B69
:1010B00098477C23FB1800221A707C23FB1801221E
:1010C0009A707C23FB1800225A707C23FB181800AE
:1010D0001C4B984706201C4B98471C4B98470020F8
:1010E0001B4B9847002100201A4B984700210120F4
:1010F000184B984700210220164B98473B1D1800BB
:10110000154B98473B1D06221A703B1D01225A6061
:101110003B1D00221A723B1D00225A723B1D190012
:1011200000200E4B984700200D4B9847C046BD4607
:1011300020B080BD00080040D10D00005910000013
:10114000390D0000650E0000AD0F0000091200000F
:101150005D0D00007D0D0000090D0000391200003A
:101160005D13000080B582B000AF02003960FB1D46
:101170001A70FB1D1B78012B0AD0022B0FD0002BFD
:1011800014D10E4B0D4A91693A680A439A610FE0F7
:101190000A4B0A4AD1693A680A43DA6108E0074B08
:1011A000064A116A3A680A431A6201E0172300E00E
:1011B00000231800BD4602B080BDC04600040040B8
:1011C00080B500AF024B9847C046BD4680BDC046C3
:1011D000750C000080B500AF024B9847C046BD4675
:1011E00080BDC046C90C000080B500AF054B5B78E0
:1011F000DBB25BB2002B01DA012300E00023180010
:10120000BD4680BD000C004080B500AF0821002025
:10121000074B9847074B01221A70C046054B1B78B5
:10122000DBB21A0001231340F8D1C046BD4680BD91
:1012300065110000000C004080B586B000AF0200D0
:101240003960FB1D1A70FB1D1B787B61FB1D1B7831
:101250003B613B681B781B021A007B6913437B616F
:101260003B685B78002B04D07B698022D202134359
:101270007B613B685B7A002B04D07B698022120380
:1012800013437B613B685B68012B2CD93B685A6830
:101290003B685B68013B13401AD10023FB600223CB
:1012A000BB6005E0FB680133FB60BB685B00BB60B3
:1012B0003B685A68BB689A42F4D8FB681B023A69DB
:1012C00013433B617B698022520313437B610AE035
:1012D0003B685B681B023A6913433B617B69802270
:1012E000920213437B613B681B7A002B04D07B691D
:1012F0008022920313437B61C046134B9847031E21
:10130000FBD1124B9847124AFB1D1B781370C04645
:101310000D4B9847031EFBD10E4B3A699A60C046AD
:10132000094B9847031EFBD10A4B0A4A5168802299
:10133000520211407A690A435A60074B9847C046E7
:10134000BD4606B080BDC046E9110000C1110000D5
:10135000080C0040000C0040D511000080B582B0A0
:1013600000AF0200FB1D1A70C0460E4B9847031ECB
:10137000FBD10D4B98470D4AFB1D1B781370C046DF
:10138000084B9847031EFBD1094B094A526880213C
:1013900049020A435A60074B9847C046BD4602B00F
:1013A00080BDC046E9110000C1110000040C0040DE
:1013B000000C0040D511000080B584B000AF0200E1
:1013C0003960FB1D1A70FB1D1B78FB603B681B78A6
:1013D0001B021A00FB681343FB60FB1D1B781800FF
:1013E000044B9847044BFA6892B25A80C046BD46F7
:1013F00004B080BDFD130000000C004080B584B037
:1014000000AF0200FB1D1A701C4B98471C4AFB1DC5
:101410001B7813701B4B5B881B051B0FDBB2FB603B
:10142000184A538818490B405380164A154B5B885D
:101430009BB216490B409BB25380C046114B5B8850
:101440009BB21A008023DB011340F7D10D4AFB68E1
:10145000DBB2191C0F230B40D9B25388081C0F2193
:101460000140080208490B40191C031C0B43538020
:10147000074B9847C046BD4604B080BDC11100006F
:10148000020C0040000C0040FFF0FFFFFFBFFFFF19
:10149000D511000080B582B000AF2F4B7B602F4B81
:1014A0003B607A683B689A420CD007E03B681A1DA3
:1014B0003A607A68111D796012681A603A68284BA0
:1014C0009A42F3D3274B3B6004E03B681A1D3A6015
:1014D00000221A603A68244B9A42F6D3234B7B6071
:1014E000234B7A68FF218A439A60224A90235B004B
:1014F0000221D150204AD37803218B43191C0223A7
:101500000B43D3701C4AD3780C218B43191C08233E
:101510000B43D370194A937B30218B43191C202332
:101520000B439373154A937B0C218B43191C08239F
:101530000B439373114A937B03218B43191C0223A2
:101540000B4393730E4A536880210B4353600D4B3A
:1015500098470D4B9847FEE764C900000000002043
:10156000E4000020E4000020AC01002000000000A6
:1015700000ED00E0007000410050004100480041D3
:1015800000400041391E00005917000080B500AF2F
:10159000FEE7C04680B582B000AF78607B6801226C
:1015A0005A607B6800225A707B6806221A707B683A
:1015B00000221A727B6800225A72C046BD4602B0F1
:1015C00080BDC04680B582B000AF78607B680022E5
:1015D0001A707B6800225A807B6800229A807B68A0
:1015E00000229A717B680022DA717B6801225A70AE
:1015F0007B6807221A727B683F225A817B6801222E
:101600001A737B680122DA817B6806221A82C0463F
:10161000BD4602B080BDC04680B582B000AF0200BA
:101620003960FB1D1A70FB1D1B78012B0AD0022BA1
:101630000FD0002B14D10E4B0D4A91693A680A4322
:101640009A610FE00A4B0A4AD1693A680A43DA61A3
:1016500008E0074B064A116A3A680A431A6201E039
:10166000172300E000231800BD4602B080BDC0462D
:101670000004004080B582B000AF0200FB1D1A706C
:10168000084AFB1D1B780F210B40D9B253680F206D
:10169000014049001E2083430B435360C046BD46B2
:1016A00002B080BD0040004180B582B000AF7860DC
:1016B000C0467B685A1E7A60002BFAD1C0461800DB
:1016C000BD4602B080BDC04680B586B000AF3B1DB0
:1016D0001800054B98473B1D1800044B9847C0461F
:1016E000BD4606B080BDC046C5150000DD0E000039
:1016F00090B585B000AF0F23FC180520114B98471B
:1017000003002370104B98470E23FC1807200D4B45
:1017100098470300237002200C4B98473B001800A9
:101720000B4B98473B0007221A703B0001225A607E
:101730003B0019000020074B9847C046BD4605B046
:1017400090BDC046AD0F0000C91600007516000020
:10175000951500003912000090B58BB000AF002342
:10176000BB6000237B60BD4B9847BD4B9847BD4B8A
:101770009847BD4B984710210220BC4B9847202129
:101780000220BA4B9847BA4B1800BA4B9847BA4B4D
:101790001800B84B9847B94B1800B64B9847B84B50
:1017A0001800B44B984780239A02C0239903B54888
:1017B0000023B54CA047B34B1800B44B9847B44B2B
:1017C0001800B44B9847B24B1800B24B9847B04B37
:1017D0001800B04B9847AE4B1800AE4B984700220C
:1017E00000214820AC4B9847002200210020AA4B42
:1017F0009847A74B1800A74B9847A54B1800A54B37
:101800009847A34B1800A34B9847A14B1800A14B36
:1018100098479F4B18009F4B98479D4B18009D4B36
:1018200098479B4B18009B4B9847994B1800994B36
:1018300098479A4B01211800994B9847994B0021E2
:101840001800994B9847994B00211800964B9847E0
:10185000924B00211800924B9847F0235B00944A6A
:1018600019001000904B984789239B00914A19005A
:1018700010008D4B9847904B2B2118008A4B9847AE
:101880008E4B00211800884B98478D4B292118005A
:10189000854B984788235B008A4A19001000824BC9
:1018A000984792235B00884A190010007E4B9847A6
:1018B000864B0C2118007C4B9847854B0021180063
:1018C000794B9847834B0A211800774B9847824BF6
:1018D00000211800724B9847804B01211800704B73
:1018E000984780239A04C0239B03110018007C4B67
:1018F00098477C4A7C4B11001800794B98477B4BEA
:1019000000211800764B9847794B02211800644B50
:101910009847784B80211800614B9847764B80217F
:1019200018005F4B9847754B802118005C4B984717
:10193000734B072118005A4B9847704B40211800F1
:10194000574B9847574B18006E4B98470300BB60A6
:10195000564B18006B4B984703007B607A68BB6856
:101960009A42EFD1684B7A681A600023FB60674A9D
:10197000674B00211800674B98471F23BB61BB6969
:10198000FB61614B1B68C222920394466344624A26
:1019900011001800524B98475B4B1B68042118003C
:1019A0005E4B98470200584B1A60574B1B68C22287
:1019B0009203944663445A4A11001800484B9847D2
:1019C000514B1B6804211800544B984702004E4BA2
:1019D0001A604D4B1B68C222920394466344414AED
:1019E000110018003E4B9847474B1B680421180014
:1019F0004A4B98470200444B1A60434B1B68C22273
:101A000092039A189C239B0519001000344B9847A9
:101A10003D4B1B6804211800404B984702003A4B8D
:101A20001A60FB69073B7B61BB69043B3B617B69D7
:101A3000002B04DC00237B617B690733FB613B697E
:101A4000002B04DC00233B613B690433BB610023B2
:101A50003B6287E000237B627EE0C046911000007D
:101A600009120000F11600003109000019160000EB
:101A7000D0000020050A0000D4000020D80000207B
:101A8000DC00002000100042C90B0000A90B000080
:101A9000A0860100A916000055010000202030009A
:101AA000B5010000F82030001D020000FC203000CD
:101AB000342030002C20300030203000382030001E
:101AC0003C203000482030004020300044203000CE
:101AD0004C20300050203000642030006C2030005A
:101AE00095020000070000260400300008003000C6
:101AF000542030009020300094203000D42030005A
:101B0000702030005503000020010020A099000043
:101B1000A81F0000C106000000FFFFFFDD0300005A
:101B2000FF0000023A693B6AD3189A0179697B6A1F
:101B3000CB18D218FB1CB1498A5C1A70B0493A6ABA
:101B400013001B019B1ACA187B6AD318FA1C12785F
:101B50001A707B6A01337B627B6A0E2BE2DD3B6A83
:101B600001333B623B6A082B00DC73E7A54B1B6823
:101B7000C222920394466344A34A11001800A34B67
:101B80009847A04B1B6804211800A14B98470200FE
:101B90009C4B1A609B4B1B68C22292039446634481
:101BA0009C4A11001800994B9847964B1B680421DA
:101BB0001800974B98470200924B1A60914B1B6894
:101BC000C222920394466344934A110018008F4B3B
:101BD00098478C4B1B68042118008D4B98470200D6
:101BE000884B1A60874B1B68C22292039446634459
:101BF0008A4A11001800854B9847824B1B680421C4
:101C00001800834B984702007E4B1A6000233B620A
:101C100050E000237B6247E0F91C79483A6A1300E0
:101C20001B019B1AC2187B6AD3181B780B70754B6B
:101C30001B68C22292039818FB1C1A78784B9200FA
:101C4000D3589B029B0A80225204134319006F4B06
:101C500098476C4B1B68042118006D4B9847020095
:101C6000684B1A60674B1B68C222920398187B6A04
:101C70005B01DB036B4A1A403B6A5B01103B5B0470
:101C80005B0C13438022D205134319005F4B984726
:101C90005C4B1B68042118005D4B98470200594BB0
:101CA0001A607B6A01337B627B6A0E2BB4DD3B6A70
:101CB00001333B623B6A082BABDD524B1B68C222EF
:101CC00092039A1884239B05190010004F4B9847E4
:101CD0004C4B1B68042118004D4B98470200494BA0
:101CE0001A60484B1B68C222920394466344002149
:101CF0001800464B9847434B1B6804211800444B7F
:101D0000984702003F4B1A603E4B1B68C222920369
:101D10009A18FF235B42190010003C4B9847394B3F
:101D20001B68042118003A4B98470200354B1A6093
:101D3000344B1B689BB23C4A190010003B4B984740
:101D40003B4B18003B4B98470300BB60364B1800D9
:101D5000384B984703007B607A68BB689A42EFD1A2
:101D6000284B7A681A60FB68012B15D002DC002B27
:101D700005D037E0022B1CD0032B27D032E0FB69C3
:101D80000133FB61FB6907333F2B2EDD3823FB61F9
:101D9000FB680133FB6028E0BB690133BB61BB69B1
:101DA00004333F2B23DD3B23BB61FB680133FB6026
:101DB0001DE0FB69013BFB61FB69073B002B18DA67
:101DC0000723FB61FB680133FB6012E0BB69013B49
:101DD000BB61BB69043B002B0DDA0423BB6100230C
:101DE000FB6008E00023FB60CBE5C046C9E5C046C8
:101DF000C7E5C046C5E5C046C3E5C04644B90000D6
:101E000024010020200100200700000595020000A9
:101E1000DD03000000013C07204000080100001F16
:101E2000A81E00000000F03FFC2030001D02000052
:101E3000F8203000550300000E4B70B500251E0041
:101E40000D4CE41AA410A54204D0AB00F3589847F7
:101E50000135F8E70AF076FD084B00251E00084C16
:101E6000E41AA410A54204D0AB00F35898470135FA
:101E7000F8E770BD50C9000050C9000050C900000B
:101E800054C90000E80F00003810000038100000AE
:101E900034100000DA0F0000FA0F0000CA0F000033
:101EA0000C1000001E1000000000000040000000A8
:101EB00080000000C00000000001000040010000A0
:101EC00080010000C0010000004000004040000010
:101ED00080400000C0400000004100004041000080
:101EE00080410000C04100000080000040800000F0
:101EF00080800000C0800000008100004081000060
:101F000080810000C081000000C0000040C00000CF
:101F100080C00000C0C0000000C1000040C100003F
:101F200080C10000C0C100000000010040000100AD
:101F300080000100C000010000010100400101001B
:101F400080010100C001010000400100404001008B
:101F500080400100C04001000041010040410100FB
:101F600080410100C041010000800100408001006B
:101F700080800100C08001000081010040810100DB
:101F800080810100C081010000C0010040C001004B
:101F900080C00100C0C0010000C1010040C10100BB
:101FA00080C10100C0C10100789CB4BD3F6C5B578B
:101FB0009A36EE22C025B006A822C604D3C540A694
:101FC000891A1771934ECE4C635581E34A9D09904F
:101FD00080EEAD4CE25B209C6644DA8249A65084D8
:101FE000DDC568B752DCA9D9845B7C83A88A3485B7
:101FF0000D175F120FB0836FA79A09057B01ABFB2A
:10200000060810FCEE739EF39CF73D97946327FB44
:10201000F385258AF7CF39F7BCFFFF9ED6A0654729
:10202000D51A14E1D359DFBE3DEB17D935387756B1
:10203000F26AFC4F7F37AED1538A41FA8B77E02C9E
:10204000AFA86C343C215C51F1198BBE3D33DE9955
:102050001D457556E6B30C4FD15DE9C9BA263E3F22
:102060009C09E3E3EEF059B3E4D5FC5E6F80EF1614
:10207000F60CAE44E5C78DF7563C6733C5B3166E14
:102080005516695E71BC0A4F0E4F2BF5C66935FBBC
:10209000B6EAFE73B826BEBDC1446FA0DF365F5CF2
:1020A000E7E1E0E6E1EEB6DFE5CC3D35AE975FA1D6
:1020B000E9ACA832A856BC02FF3123DDCF33455C22
:1020C000B1228D54CE3873C2C141B55EEFFAC9D585
:1020D00074B63C37FDC781F3E9DDAA569A8BE03A26
:1020E0009D714D859D45C26A5ED3787EC52BC37AAE
:1020F00055E97CA5B7CFB0A7AFF19B87E687B1CAFA
:1021000078BFDDC555101456DC1F57218C5461FE75
:102110001ED7F2D15BE1FD8CD6386B4F793C6F67EF
:1021200035B270D69FE77B6276D3713DF3F1743C94
:10213000994D66E56C1A7EEA093C8F952DC7DBF553
:10214000391DC45CFEDF9EE1C9769433E28130170D
:102150006F5D3F3F9E9DCCA6638C18DF34604D6B56
:10216000A0B179C5646633E4AA94F1B97A8AA81C4F
:10217000732CC3F8BC82E36F8F3D164F38BF7A547F
:10218000BBDFE3C6F6AC184CDDB3EB1962FE017F92
:102190008A08B570BF7BC756B5E80BC3B11A9378F0
:1021A0009F3D3FAD70C0EA7AEE717DEB71C6DBE317
:1021B000C2D1F064ACF987278CF97CA32CBCBFCDCD
:1021C0002CBEBFE3AFDB589FB13B3F269D88EEC2DC
:1021D000FC6BE895698D227C4B8F0B613CCE28719E
:1021E00030AE70FD24FF8DB0B3CAB0B3B233826D90
:1021F00011AEF23CDEA44B31F04FCCB974824D3CB1
:10220000FC9C8A7496738DAB54D91316FDFCFEB3F7
:10221000BEA748DDE1F9A7E6639C3EC881F4C4E5AA
:10222000D9E4D7B9F572DC363FFC5AC57B2AF7648E
:1022300047A5919F546E5D13A7A4C42BD227930783
:10224000B68AAB46B7F30BF74E394412171A90A271
:102250006A9C1E9BECC9E57B093E55924A8A04376D
:102260001B9DF855CEFCBCF479D1E719E034E0D0E1
:10227000C41C9E11B78A773A4D43180D9EB028EDC5
:10228000BB85E15449FA336E6E70E77B8223D457E5
:102290008D05674A7DA329BEF964166457059969BF
:1022A000DA84C911FE2CD2B7462FE44F93598EB170
:1022B000391F97341044BDE6A5F7F7F4E1215DBA64
:1022C000F16DD6457AD634C04FEB9FCE278AD1FC2C
:1022D000356B72057BBF459F3C5A33D81E4F66B99C
:1022E0006C0597B11990F7F8372C038F998EF5BECE
:1022F000785E7D67253A230F93BC24E74A14565134
:102300001E10CFE2FD35FFF4F4421E0B0CE2FCC5BB
:1023100073ED8D789EEF94CE5782067920E5D859DB
:102320007F1279A61DD319A51A31CFF1F488CD6596
:1023300098DF76C450F26CCF93CB387F6A5B98BD40
:10234000EE27B70AE3277D87B22D4A6CADD8CC20A3
:1023500054C6F737DD87EB1FF4A96CFD398382F78C
:10236000539F288BCAC98CF03E8BF04452A0A750D3
:10237000A73746CA2C138E904A5A4E3A788DCA30E7
:10238000B81898DE52D470244E2E128D2CCAF09CB0
:10239000F8946992D41E532345D733AFDF3AEA8BC2
:1023A000D487FC3C8D463CDFCBB9B5834AB53C4A6B
:1023B000312867FE79DED2E153357F7218ADBE3D1C
:1023C00023C79A3893524F299634CE229BED592930
:1023D000A82D8CD33A18F0F945E33B2F6FCB997DAC
:1023E0007716B558CF6D27F9F8691E767FCDF94A73
:1023F000F14A2FF52847F5267A4E6693B9F54EBC7B
:10240000AA4AD755E9FE4A944A092B3EC99918C7EA
:102410006FCAAF20694B5E937899E7E70EA28233CB
:1024200038B5492D839AE6A739669265205EBC309F
:102430000C4832B788F3F7505E882692FC912C68DE
:10244000E2822435294D54B2A06E2F6D2B582EC236
:102450007393D085B37048C90D183A38043AAA1A54
:10246000B26860929B12C18D601A539559554EF611
:1024700068D52633CD939C3B9EA9A82710C74CF75F
:1024800009F794E54C72B6BE6A5C080E92BD7DE217
:1024900035F9AB38F759DF8F492EEBE4604508F189
:1024A000EA899B5F9373474B4C589359950BF2BC49
:1024B0004A1254F68956B27EDA38AD57C9CF5EB2A9
:1024C000155599C6C4F331AF6DC779E36871CCFA7D
:1024D000FECAD14E7ABEF0DD56D9EB2EC08F497CB4
:1024E000BE68D4709990A625AEB5F63C3ADE33D6D8
:1024F000CA1503491687E995565E1A9169794E5AAD
:102500003AAC08CF2EB50292A68E8E1366E3D9415F
:102510007A27BF46136FBD341535FA7174DE7382A6
:10252000684727D96D38E3AD0B2F8DA9473869E28D
:1025300064C67426CDC16627FA5C94CE42EA6B4E1F
:10254000C5A0481619C727973F4BFC46D753F6122C
:10255000F2F68C857E569089A62D18DEEB1D016F54
:102560004AF77087D9FAC96295056CDA80AD5311C4
:10257000C79FCC3C2F5A24AB6211306432267D8633
:1025800035AACC8ED55B481B324B43B288DF1AFC90
:10259000648B793C2604F1A6921F46D9FC667B1613
:1025A00035BFCABF01F5715E19C7771C3E602E3179
:1025B0003560A078A94198385F04EE5106CA769E2E
:1025C000C641E409A5F441933FD46A0A676FC80382
:1025D00060D609DF5FBC15DAA16CDC34BF723A3615
:1025E0008B9BF46B962BB99961E064661C5AD46599
:1025F0003421FCB32BCE22E57BEDD27B2EE53D23AF
:1026000005076DBA32EC3619AD95284D5E555CEF75
:10261000ED59E2A695F0D8AE0F3435CE2461653879
:102620002CDF436BE07D4CA6714EA3DFA1C83412B2
:102630007951082F793DC8795B91478B2395C16FFC
:10264000C4BB16393E56F20ED5674AF154F9B56C43
:102650007E657ABF45B4BE816F5C01BC5D39CBAD90
:10266000CEA47354C9FB03F8566965FBDB06CFF1B2
:1026700034D1AC87A2616EF0FA449E2E9E6B386E08
:102680005E198D9ABC891C3FFAAEF4D485647E45F0
:102690004DCBD6BFC8569DA343DB2F1D7C74BFA472
:1026A0002BB1215ABA99D799F288D4625C3CE82FB1
:1026B00055BEB6B91F4256DEB234F1DC32DE3F26DB
:1026C000372E22D4133D04282DFADEDFE5C7D0FFD4
:1026D00032B31D3D4DB51237A49CCFFDEBE23ED386
:1026E000B4F2E909C6B9035511339C565D46DE5272
:1026F00052DE970DDB31D7631BFEC6449346CB4DAC
:10270000696773276ED5D2749C69BB95718D5C5ACD
:10271000A4D9475DC9494B7EEBFCC55A83B332E26D
:10272000716956993C34E40493C837E3DA265E1F96
:10273000E611B588DCF31534A3E411B2D591DEBC03
:102740008891005D2B3A363D2FF2EF81E7439A5F87
:10275000E018F4209790BFD3A4DF188E1A15834E8B
:10276000092DBF6AE60D885A5C03B36CCE2617CDDF
:10277000A239CB7C2BD3B1499922518D569856F66C
:1027800059C2BDA26ADA85CE36A916F149948F0BDB
:10279000676317A2894191EBB4959F2B6D8B45D44C
:1027A0004FC53D33AAC018354C17A5BF2B3CBFE41D
:1027B0007A2DFAC9FF309E2638494B2C2A6A99E5B2
:1027C0004C5E181F87118D47FF4FC46CF3B51B7EFD
:1027D0004002E2F9096695E108B1BE189433B736B4
:1027E00099A6469A353D20BD479C6B7CBE38431563
:1027F000E37A691DB667537F9EEF281CAE34F3D28F
:102800007106B3A5682F4F63D46091C9F1E4D7086E
:10281000F73392B2B079257DB98CFE1B71E38CFA47
:102820002BBEB956D15176E0F78BC8B5C99BA357DB
:102830002D8B57FAF94B432537A52E883BB9FEBCA3
:1028400022AD91D9E7EE4DA427385F7782246DB889
:10285000A809458D2F8F9A79EB2A5BA981E483D64D
:10286000DDB848D2D5BDBEE1E1201F426931CB1CA5
:10287000C724038B24055748904A3658886694B974
:102880004665F3A7D7D3C98D6C0526D9F88942DDF3
:10289000FA792B22B715B4BED9ACB2F7CCBDC0DEE5
:1028A0000E305DD553F659DF6383B446E32F4902FA
:1028B00096CEEE8A948D15F052CAEBEE6E05247D0D
:1028C0002C929D7021CDB45C7E4F7D2E06AD4CAF19
:1028D0008F77E6DF54B9DF9C38E1ED48E33745B444
:1028E000C13C6CC4F9F351F2E7B78CDEDDFC9BAB65
:1028F000BC0236959333997DA0954CF7BB73ABA37F
:1029000049F9779E025A2E03C12C57BFD25C67D279
:1029100050EE95A384CD4730FDCE7071D1581FA3E2
:1029200095642FDAA8512A2F733A1BD94BB564EF5F
:10293000667AD5C4495279A30467493DA396DC1F42
:102940008B83DCCE60DCD49A725EB30CFF684135B9
:102950007415AFCB2E433DE161957BABB99E5E9B79
:1029600092EFCB79101BB380B470DEDAE62A2649E9
:10297000BEE867D7A4118C979DF5BDB7D2F39262DC
:10298000E92EC32FB3DA3D4799CEA4A55A94D9CFE7
:102990000C1C16F901B471B6BDF7265C53EB12FDA1
:1029A000328B8E6B1DCDF71A2DB071B0F4C65AA7BD
:1029B00022BDD56466D1FB180BF150A7153086E710
:1029C000C27B8F145D911563E3E7AB7A56C67363E0
:1029D0006AEB199C2BDE2F1B14BFB71D1E52C2E1E0
:1029E000CE14E31FE7FA3C23613E03617B26DC96AD
:1029F0008449F90563DAB2F674E8A7B2927885B72C
:102A000067D2FA8CF986DE521664CBB1875F297BD8
:102A1000ADDF5CFFB07EB3697AFF44D7968923D9D6
:102A20003558481A567E26869D1EC35B990FAF58AF
:102A3000BADE7D53E55CC3FBDB7DEC22F7E949237D
:102A400030BDC0B4C1B306A5A4792759AD08AF976E
:102A500025517BC8359DAA58C9DBF2E83567E7B137
:102A6000DBF08847CE41EC9D1BF2AB74945AE979B8
:102A700039C74A32AED4681653B033E2A1CEF35F01
:102A8000D95FFE2D9CEC762B27FF9FBD377DD4F4BC
:102A90001B9F39581BE7A2C5287F9797B66711E39C
:102AA0008AE0272E06CEF7E83085B1E49C8B881AA1
:102AB000347E2366A3772C177D971F9059D2D405B7
:102AC000CE820F885E95E5B826DF982353DA24BFBF
:102AD000B693B3653AEF232A8EE283E76A7BBC8C18
:102AE000EBC44CF24F490BAD729C638A66791BCEE6
:102AF000D6C6CE4C670EAA6531701947E1C9DB33E3
:102B0000429432515E31AC1038C2A26FF1FD069E84
:102B1000461F90F74F19CF207E31DE1C2CDB81FC45
:102B20005F86A366DF693D4AC6F7D328F489440867
:102B300056F4D188228B01F9B1EE5F94F67CE14224
:102B4000F0E6F52587262B787ABCBFD2D5FA2C9EE5
:102B500049FB8790359E2A6A09F653DFE70F10DBA1
:102B60008B04019E4FEF37D36AD2529CBAF99B8FE8
:102B7000C78E698CFF6B7D834C491104597E7AE7BF
:102B8000E8BDEC1B0DC8BEA4E7423E3AE326DBD904
:102B9000F82613442BC132AE263342CC7C74E28635
:102BA00065B44F0D278A81E9428637B28E5653AA03
:102BB000CD807E8BF0B39129D4C0BE74D0D2348D39
:102BC000C5F17CA745373C678E0771FC32BC756642
:102BD0004F2469461E53B8A7EA5BE3DC4DEB525A1B
:102BE000A9E8D534A6D620BF9274A20C0F5A43454B
:102BF00043FAAD8ABFE75101A7B162E5AA86C65B79
:102C000009834C063A4BC7C5C5E3EA957E8D22275A
:102C10004AD2CDEBBE49231C1B9C9665AFF12569BA
:102C20000CF19AB89616618BB19B2A3EBBF21AA69C
:102C3000C70383B4F48B7C9D93F7B2CAAF9A8E938B
:102C4000A45FB275A22CE81B5E7025935DDB8F5EDE
:102C5000FB2A3DCFE132A95E9CCEC992CA737D7139
:102C6000B2062CCDDF38764FADB2778C3A2AF32CF2
:102C7000F8FC456990103FF5AB6E1094C766DAC05A
:102C8000238F43F2A7E66FD072F63CF0C0B086B84F
:102C9000146447E465B6A2CA09D24FD1A08D4B3E59
:102CA000656768F509F3527C796C5845EFBBEC22F7
:102CB000936DE23F92B32D9D4FB23BE901119AC152
:102CC0009F0FD9565243DF8E72CCF2E89551C398CC
:102CD000F774E6692C7AAEC74563FC1047496BA9C7
:102CE000F76BD9BB4429A2F7D3FD85AE928785B295
:102CF000C845812853CA9969CA9CB38FFCEB5D8B88
:102D0000086DB7E615E66252B03550A60EF2032004
:102D1000E7D3532A62415ABF482F657833937C2DFD
:102D200041B69AC69935354093861E27B2287FB59D
:102D30001DCF6BC6262DCE92EF743A4BBCC073826A
:102D4000E8718325D21A980D530C3C77A19563D76F
:102D5000E7D46A11237B27CB55C237B4D33C8D7897
:102D600009934B6B4F873EFA1CE05BE5FC4A2395C9
:102D7000B3A9B3E02C9F464F7411A5CA575B440911
:102D80003B982C59B82E2A5352B7F2F46C5C40F39E
:102D9000DFA6B694C71C523CBA1131AB6C14AE120C
:102DA000E037495E4183ABE189C17F51869C85AAAA
:102DB000189C397DD2AD5F29CAF07CC2DECFDBD949
:102DC000A5722E2A46AC9CBF3E69A5A66F529BC831
:102DD000F1D26340D37BE53DADCE43E0AE324FA8A8
:102DE0008FC859DEB0CD5FEB973CE3A57874CA90ED
:102DF000197B3D44B3160E796DD0F0543970F4FE52
:102E0000671A4599E65F09833CD45A03CB4FA0CF9C
:102E1000DB47444D968BD2427E409222F66DF263A0
:102E2000ADD0562711A7CD0EE07A05C88E5386EA9D
:102E300020615EC29722E47368CD4839393EA87696
:102E4000A201C599B41AD5354428901B57667F96C0
:102E500063558544DB349C9F64F08A3925AE86A98E
:102E60004CF09067294ACAAA096F5546F0DA8C1EC1
:102E7000123C94616BDCD8E34B99E62FCE7896F840
:102E8000B662D058DFA2F2AB923D7FCC2838A5299C
:102E9000E05CCE8ACADE4F164C99A06C5538F27CA5
:102EA00071D585D1845FD2FFA3D76A12A1AABC3E97
:102EB000CF2D9A392D899B8DE39C329D8EF6286704
:102EC000D6B4C48D1B4EC6C9F61B68649DE3FD09CC
:102ED0009B6B9B7A51269E5F25D88C4BCFED2B7B2D
:102EE00082D63ECF3DF77AB8702FCE3850EF2246CB
:102EF0000219A528976C437B77D21A7C6F67A97655
:102F00009173B02C4D97FBED343A8BC19834145E1D
:102F1000F911684996315BCAB889E99A11332A7B5D
:102F20003F2FF9026E8D97AD2C8B9E3472CFDDBD95
:102F3000710E65C2683733D905C520E6083774CBF2
:102F4000A4AF5696A52FBA5766A2A7A3E0B929CD7C
:102F500013E7E55F1929DEFBD5E2F3CB96AE554CBE
:102F600027FA3ABC87D978BD3872337E0F7835237B
:102F7000099A7F218AADB2F71B9B4CCE56B79216A9
:102F800066FAB4E57279AC3B53FD5DB52AAA2059C7
:102F900041EE278B57F089F9AF95CF5DA68EA391AF
:102FA000923D55CA464CB3AF5C24C7727F4B3B275A
:102FB000DF1EDFA7887E4B4FB5AD18F9671544C4F7
:102FC00083CA708F91E7A427544D9C32FFC824D93F
:102FD0008DC63F709027F0F9E677338D26F82FB233
:102FE0003CB53C82369DC9EB9E30B32C9C366AE3DF
:102FF0003BFDA7342C2F4306E4D451BEA388805355
:103000009371316852B67E2EA2FF449E7CAFFDFACA
:10301000F7B33C3CAFBF26095C6D273D2445E32A4E
:103020003B8FB7D0FC8D9EB99AA0F95845E2E66D6A
:10303000F823FF51AD67A4B97B5D3AF89BCADC6FFA
:1030400025EFAA5F0BE4402F4AFFE4A6D73F65D1E6
:103050000D5A29A3C7F39972665A58C4F9D2F86772
:103060006E5DE639AD1C4B5A9BF2533CB414FFF72E
:10307000732E06E617F79CA0190FD69BF2BC30A75B
:1030800088EF21BF414B59761ECA916F645A692659
:10309000FF8CD25A499E4BDEE57CC62C7FAF2F4B6E
:1030A0003ED9790F3D93B1941F4E8B8EEFEEBDD676
:1030B000D2AA539C253E7DD92FEFA59FD94EE9A8D2
:1030C00084FBFADB4B69AFABE7E3C40AD2F4567971
:1030D000D4D71F7C7A0EA56EA7DB69CED1EBDCBC02
:1030E00027976BE6D12714724BA1191969255F53F5
:1030F000930B14F5E86FBCDDEDE81D638684A3A790
:10310000382BC73B2D7FC64BCC4C238919D779244C
:1031100046DCE32C657889E3E7AB54243978D66F35
:103120004A654F85AA27F23A9183EC0507AC120F46
:10313000ADE45363CDD620E92195F033A7C869CC1F
:1031400014B47AE1C2F174574D65767D9A7B1132E1
:10315000A86D45BB9D7BD72E7DD0D96A6DDCBB06A3
:103160001C38EBAB9EC4B0CFCF91BCC82041EC5C07
:10317000F47DDD586EF5E4341FBD4ECEBBF8C6DBE2
:103180000F3E7CF0616BE38DB7B57E65AA0825071D
:103190008874967A0534BC264DECAE2633CB004AB3
:1031A00073AF8CEA6575E6DF063F0BAB88C60BF79D
:1031B00076CD35CCBCD9C20DF2A998C3EFF5647BAE
:1031C00002A0A6B8B22C09BF329474D4F3D5032060
:1031D000D2629056786B6AC17A463973EB1AEE6701
:1031E000A69945A90D9F43D7882AAFAE2F67DDB2B8
:1031F000B531DAE271E903E0C0E364C5C852D33AFD
:10320000597E809FBF1DB1FE9FF78E654919C5E2AB
:10321000BCF20FCAF88667FD071F7E72776DF4C98E
:10322000DDCB7780017E6E169FA7B61BC71FC7BB7D
:10323000438E816925C48ABCFA9E3291EF40AA88E8
:103240004F4FAB14396DC5F5832D18DF6C6CD52F3E
:10325000C27165125AFDBFEBC3316035B3E53784E7
:103260009F793E7116B5F0B1E5D620E7EA85B36BDC
:103270009A7CC5E3A1F8549EFF532CF11F61A9E984
:1032800025FCABE6B9416F18DDDAB975E9834B1F50
:10329000080BBA8DEAC3309B8C5A3CEDE98CFDAD2E
:1032A0007964518241A63F485BDB581BAD0D5F7CC2
:1032B000BC36BA7C073CE0DE357BF22278F217C6DA
:1032C000FD4C2FC92566387A9D6EE37CD0B24AE664
:1032D0006E69C6CCCA94E652F0AEAA5BDEBB76EF4E
:1032E0005A90417EC52B37D7A4D1EBBCCD4B7AF396
:1032F000A2DFCCB7CBB5A85C9247EBA04C9EA0A4B4
:103300006F682D43E57D3F8FE9245C08F078340435
:10331000F5926EC1BD75563C27FAC8C7F9FDD22D8E
:103320007A9DD196C65E94A35BF83DDADAA99F87B1
:10333000B51047311B2CE782E46867FDDC6E2BB2C9
:1033400071747E91653C16114720F541F938007D76
:10335000C01F6F6278428BD5DBB87E65DF781BB308
:10336000EC761E0FBB9D5E2DC5BA39960F142DF25B
:103370005E010F1148BE9D5B1831BC7BFDCD4852EC
:10338000B02C92A7D4DB7DAACBE7F96260310ABDED
:1033900057467B9879251B91724D3C4533DD0E3E97
:1033A00005797CF3FAF620C9E279ADB7783269A7DE
:1033B0009E6F843828B7B5F16C284B4E34A8FAFBC1
:1033C000E89F1B2BFEFEC6DB90FADE57DBD9D25BF3
:1033D0008E6E110E1A31F6138AF3CF7D4094519AF6
:1033E000B379C7444193683F2A0A1DBC73616EF7E5
:1033F000AE3DF89050BF7CC7A0CF9145C9A9BFC1D1
:103400004C9534AACF27BDE02DA03D10FF1F7C882E
:10341000BF025638AB80F629714ADEC36E893B770E
:10342000B6CEE46DCA706374CB6829E627D0F6AADD
:1034300026B13ACA7A9FD05B199EDF882810CBA7A5
:10344000097EA2A0DC6E4A1A95A05689A77B6C372C
:103450001FA61D98E122F29CCE560DB380BDAD8112
:10346000BC0C91DF56CA5377B45BBDF1F668AB7301
:10347000ABBEDEC5F0475B829B38CA1B6F9BE64341
:10348000FB59BE853C9E8003EBA935733A59A55A7A
:1034900077C526D3B9C0F741F797EFD4F2BFFE0442
:1034A000280A079214483DC21A71823EB9477DDD51
:1034B00006EE2706E039D022C24C04D3529493B2D0
:1034C000F307787B9B3BF323F3B7196DDDD9021F1C
:1034D00032A91C6BAFC3354DDB09C7B3618C029BAE
:1034E000C65EC946D4FAE9775316929B47CD73D688
:1034F0008A5E4F8703CE12B5F3F5BB270F2D210946
:10350000F8D7BCB0E4CA9083CBC79B2AF06601739E
:10351000363A81CF77B6B812D4FFF8AC4ED40170EA
:10352000743B8AA5692E09934BB35D0005D02FC665
:10353000B45842B33F80E8397EDA30AE0F080286D5
:1035400082243180D640263F0987FAAD09798C68FC
:10355000F0C727C323C872F0F17CF6C40371CDBC59
:103560004B8FA826D276D5D91205086FF05BB190A3
:1035700022A34668B1A45D714AA7853869E8DF8453
:103580009840AF45196BE9E5A14BF10917BF0EB59E
:1035900058694C4257331FDD02F58E02445B61EEE1
:1035A000A46093E0FC19A46E79E90361CD4ED4FBCD
:1035B000A1F95DFA00FCB0E60B99352009EAE45C5C
:1035C000C448CAA16743F05DCA7052E159EA666611
:1035D000232BE2050E5043A6EC96843BB9BE240093
:1035E000310290E4F7D24E7D153FB532C23FBCE1C7
:1035F00006C6E73DC2A3071FAE8D888DA93F407A5E
:103600000ADE7F2749BA5685AB770F387EEF10BFA9
:103610002FDFD93D1485830B5003CBE36CF457396E
:10362000DDA71E7F11B52DCB8D4CF0CD3204D9AB6B
:103630008BB3823C8216C2F7850CF3915446E3A803
:10364000BB53172607C5DB3FF8B0E6DFB7CCCB434B
:1036500098716EC0813BE1EF1A7EB9DF94731D242F
:10366000CBB322EC392A608FBFC529A1073C1A16BB
:103670004EAF91FF80BC783AAB57788370A31E871A
:10368000B7E875A4BFC68857B29021D9BA9DCB7749
:1036900020B1DBA3CD797B047E4D0C101F1047E0D9
:1036A0007AC4795A8E7445BE4FC80BFEE405C2A396
:1036B000C00702FCEF5D7B3E4C308B73AA75BD2DBD
:1036C00071C5DD438D9DEB21E1294EB2253A731A78
:1036D000B8B40968A86FBC7DBE1324AFF34612EAE4
:1036E000CA4F38CB7292832CACA8DDBDF176A0C650
:1036F0000A10C0DA4376316B376288E9EE81AA801E
:103700002D41478974DBB9254E031CF0996BA0E568
:103710004B1FD416421C75218E5DF37EB3A63AB5BD
:103720001E60D22560D12D8D286DD8732DD55906F8
:103730005FE006E105BE5B4BF368C3036AE2A449A0
:103740001B4D1800AE5CCBFEE1DEFECDF9DE3EEE99
:10375000C18A9B2CB083F005FCC085177D7A810857
:103760007D727ED3180939F1134A04F2059347B0EC
:10377000F261F1186F36BEB1367AF3216643FAD79B
:103780005BF14A68C9B9E7BB4C7C90F0BD77EDFCB2
:1037900084DC4A5AAA9D6FF00CE735014FC13D8683
:1037A0001D9D48B3A5B85DB417ED19D3D9C8785796
:1037B00094D480BAE76811AA5B843FE0E7E3F7CFCF
:1037C00061313A08EFDCF2B2093824BF0479019E76
:1037D000F07828995446BF50C09E0D523DD74FF007
:1037E000371B5E92D0551E06EF0AA87FADA6FECD10
:1037F000B9EEF8E46E7B284C100D4B0680FA20CD14
:10380000A90BC2A302F893F28D73E839C21CCE0350
:103810005885273C1B8A838176945FC06BD746B757
:103820003BF5B1B57FE376E7ADF1EDCE9B0FFFE958
:103830003FF6F6F924C11C77497B124D7BABF25958
:103840008DCDE73B98E334AD8FCFEF900C933FCF16
:10385000B4FEA8615784267ED2FB12E75B29CB9782
:10386000D2B39CD5DCB8928E403E76674BD23CF109
:103870008968C3EC4419FEC6DB45C4DAE9ECF110F3
:1038800077D5DAC2AD242D2C8210B0ED4E9429B834
:1038900082F0270C627F8094D3F0C6DB847A7BC4ED
:1038A000953FFFD8DBF0BD4EA6B9557AFFE061D950
:1038B000881C63A83B6AF88F0CFEC222D234F097B2
:1038C000763EEE7F3E24B7F7F027C7E72C0479E277
:1038D00010F9116C3DD25E8DC7497F227EDCEEF47B
:1038E0006FF46FECC7E3D31B1F055C786BFCE643FA
:1038F000EA017145833F6C123B77E407A0D4EDD415
:103900009470FAE0438B72160E16B24016FD69A24F
:1039100008F2F75EC7D608D00206D0FB62DE6BC69F
:10392000E4D5F705BC08DFC35680CE4F5B2DC274CB
:103930002B71814AFC9F1C5C72A91C039331A39DCF
:103940007AACC2F7BCA125518DB6A4FFED24E803E3
:10395000FE7C5EF28304DE09EA27D4B8DEA6CD2918
:1039600092A07B245F00FF7BD74CC68AE393E30AD7
:10397000174C07202C0367AD447192F8C403618192
:10398000E4BE68DEA408E7DE8A929CEB5854C416B5
:10399000507EFF067E5EC7B1854F1F8503BCE0CD1C
:1039A00087BD4352DFA50F28037D0452BD39A0BF58
:1039B000D5D87C0AF8972BB24F9A910A8BC99C955F
:1039C000E493A228EA5F84BFD9D0D354BF6ED7CB8B
:1039D000BE929EDE89BA9FB47A677155F009413371
:1039E000856F1ABEFE3B5BC436D93461D45B18B711
:1039F000E36C814E06FF7BD79E498F8AFD29F0CE6E
:103A0000F2DA9BDE2479CA7B16D183E9F303DE78F0
:103A10009B58631C5EDEBF26FC3D0CA105488FA2AF
:103A2000EE27D8CB0A34CC23CD6B2ED035393EB817
:103A300071B784742B22EF0F7C3F421D1840E8DBE6
:103A4000CFEB5B01B729833744F92E8762C0AC2ADC
:103A500040FFDBA77BFBF417343D03F2BF992660E0
:103A6000BDE1C21DC647E26FD2BFB7DC955D028FD4
:103A7000558073F482E033A534AF1DDD92362FAD4F
:103A800062B465DED472068F9F623DD24747B76449
:103A9000EF456DE21674CAC4076E1107F014CB52DD
:103AA000041C696B016A92FDA68DC97760981F633B
:103AB0007AC1DBBF395F9FCB4A87FC5D73BC3FD7C0
:103AC000C4734B1052BB571AED0B0FCC16A00F50FE
:103AD0001AA07083F300A492DF6770F9CE471DF03F
:103AE0007DC2FEA32D42DC8E1A1BB6A00B5CBEC3AA
:103AF000B983B3FA9EED7600FAF327DF3EFDE4EEDC
:103B0000F3660E76E4023EFA60D1FA337A70DC9303
:103B10003A916E776EE1FB3CAEC94A1A5E5F0CE8E3
:103B2000B5E94438537F07B707BC0131EFD3815D56
:103B3000C267753B901E826C2771FA4EF402C087F3
:103B4000182449F00431062F8E209D24793492C622
:103B50000DE86D1E6D3A888A1304BBA9B27B8A28D2
:103B600035D6E7E71FF35ED2BEC15F50271730F8A6
:103B70003FF8B0DBA1BC84FCC80FC303FFB7744897
:103B8000CC533E2C600F2524B06E3F423F70FEF0B8
:103B90001B58F0F7D1DF4782FE47B50CA865C980F6
:103BA000122048DDBEF165FEBC770DB4BF767A7E8B
:103BB0009268B94A954D8A7F55F93A58D6987C381B
:103BC00082109E5FF3E70DF22CB378558B4FBC103B
:103BD00015D25F07082DFABE0F04604ED8529668C2
:103BE0000CC01FDFCBCF1FF5834ACF2B9CA7B1158D
:103BF0003D9FD2033C35B706D29D45BFEB73C25FF4
:103C000070933743CF31AB99946998438B8BDFB472
:103C10001B7C401CC078096C47E8824D1C302F800B
:103C2000D70A880B97EF98D4D4A7CB77F6F6F7DFAF
:103C3000BFDEF9A841EF26076E070DE0ADF1DA48C7
:103C40002B6FEB4EF815F149E75FCE9F7E5B1FC1EE
:103C5000FF47CF6C65D694AD983C42BE7EFED1D076
:103C60007C11D20068B3A508FE58763F65DF284175
:103C70004F12E04E826688DB54B4FAE4D18BF180B7
:103C800001E9BFB591E443D0413AE96ECE9012C547
:103C90003C08E026942FC43C54B9D067E5F92CA029
:103CA00078BEB3369207CF74C032E52F103B27F1B0
:103CB0003E42FFFCE3CDF9F98ED9EDD2024D8F944F
:103CC00014972798BE8026FCED1BEF152217A0271E
:103CD000187A76C0EE0DCAD1B5D17B41EF23EDBF86
:103CE0001760FE9120BF45C8BFF5DBB7C61F75F64C
:103CF000F64951D4A12D7F807B3494B34FEECE9FF3
:103D0000FECB77DF3E9D3F3D3FB97C0776327303A4
:103D10000863C6EE640B2C62465ED402796C507761
:103D2000375F2CF2705C2696931C6765AF435F91FA
:103D3000EC8B9D64C329A23ADA92DD16E3681D2F4D
:103D400049A83F5CFA403ACC4EF0F504FDA2A277B8
:103D50009172E5CE96E4803C008AECE83F3CF0F2BC
:103D6000B8B647E6FB319819C7B068D61B6FFF6E2F
:103D70008D3C1D5863F6BF74097E3ADFF1BC3FF1FC
:103D80009188A3066D46FAFC014CF19841FB31F194
:103D9000B741B724F5AC8DAE7724FB23C56F410F37
:103DA000A42E08D8FF021830BEBDB536820D18E12A
:103DB0003F68C2045AF0F997DF06FA3F3F593B0DBE
:103DC0003A479292BEEB42ECC59D7481506754FF16
:103DD000FD7808AF3BD6782749DA9E71DACA55825A
:103DE0008437A8390074B35B3BB7A8ADED6CD1EA5A
:103DF000331F82A237B4C0CC6F0F2C8004083EC39F
:103E00002D5D39BA65FE05B3FD788DD9FF883499EB
:103E1000559BE44949FAB7F8BD69FFB2BA2669FE75
:103E2000D4A22FB5E8BDB1FBC80B6E4609123D897F
:103E3000CE2B0C3C324F0AA2FCE2F38038A25DC0CC
:103E40002AC2DF70C27CC2B0F992DD5D928F158309
:103E50009AFFE7F0779FAFD718403DE0766DD783A4
:103E60004B36A59FC53E43CCF1F45FBEC3F18FDF57
:103E7000CD9FE27A9F09B3DDF0044D53FC5AF83C24
:103E80009D2182A298D763766A731AA3F293A949F7
:103E90004E678FFBBC5A342ECD01142B4E33D28C7F
:103EA0002BE527CB0AE5DAC962DC09BE8322419EF5
:103EB000F0B6C3227161052B65A70963E0C993FDC4
:103EC000E771C0534BCC1F1FDBF8972E513F13AF48
:103ED000FFE42E7C819B47843FA4827281E40166CB
:103EE0005C844F7B3CF4140F7DE0F99090FFDDDAA9
:103EF000EFD6E0ABC4F7C008F2A737DE667C9E9A27
:103F0000D4F3E029C53A7D72B7FFFEF52DF1FCEB45
:103F10008EFF4B1FBCDE591B912E7A1D59BFB1225B
:103F2000B2123D228EB53907FD0303E64FDBC78889
:103F300098F93841C9FE0E31DAE221EBF903D7D105
:103F4000F4C1656C73B1B7017D68C9379F723CA13C
:103F50001142CF765A5F657814A9B6C37C4F3B46B1
:103F60000EF2C42BFE9666DD2DD90958758267AA1C
:103F7000B7081C5DF1136900D2FB7D6E6B2BFAB0A4
:103F80008B01B00450F3B116FA824D83A44E20F990
:103F9000454F63B0BFA30E4D1DB07E8F92FA207FB8
:103FA00012EEB883B81023E01B8836726706E35A16
:103FB0007C8E74BE8405C112BCBE1575812DCA7E6F
:103FC000EAFECA4031DD5F1CB7B5B13E870DF08F08
:103FD00001FEF003F49CDD6B3FD511CBC743F2D853
:103FE000B8F98AF32CA245CCE517076114883E5135
:103FF000C4F9E2BA54E6CDA10701BB3A34B2902B22
:10400000651A99AE245E226AB783DC34CB888B397B
:1040100094D1AFC977284D0E007E8F92B661F6A27B
:104020008D4E8A04DFF4BE3F8B1D9805A1FCA3884A
:10403000EF29CE897828E18B28F222C483840938BD
:10404000C04D290FC00D52CE7225BEFC7C489D8903
:104050003CE07A83FFDF0E9E00F07E587ED4A81CE1
:1040600037AB5A83468D113C1AC7EDD37FFCCBBFCB
:10407000FCE55FBEFBA6E602F0037A3AB78C40ABE4
:1040800010489ED164299429226491425FC599E524
:10409000E10DB8FABC47D63E0F7272D2BF7F32F242
:1040A00099E54BD69A3E1B763B66339B3745D2F556
:1040B000D9D0E66C7D84CE52EF6056AB4D43CD97A0
:1040C000646F2B62ACBD8D9B7FC55A5CF205EA0123
:1040D000F42378D921BB0FF0031E30F6F46C187C62
:1040E000E163760426D5E34CB7C45B744B66B53CFC
:1040F0001FF60277832488B85B29FFA0A8587F5752
:1041000053E786D12F627E80FB7BB2058316B8B75A
:10411000CFBB421640F0FD67FD19A2453399810FD0
:10412000D736CC494DFB35FCA907B64FD7E7F4B9D4
:1041300050F7F7F907CE0E1E70859ADD7CF29E2EA1
:10414000D416921760C926604464E716E3393B49E8
:1041500023E49C5915A5BA3251ABE74D93108D5B02
:10416000B6A6A5BD29BEEDF1DF53B5AFF8948563C2
:1041700057BA8ED4C9060C1187A01D1603EA6FCD5D
:1041800088AFF9FB18CF798CD81DF3912B9B39F2AE
:1041900075A1173E1E22F7D3AA41007FF908622EAF
:1041A000F938CEBA3A4BD7DCBBD6D9623E9F660F00
:1041B0003CC0218D95148C957C3E344ECC15D43B5F
:1041C000227775EDF49B27A0FA7F0C072CC1FA78B3
:1041D000B2761CB8DC8059FCF200599D89D564A2E6
:1041E0005F52E2142E574DDE79F8EDF3ACBFB0AE5E
:1041F000B1DE98D57BE0BF3E77FBDE35440945A3B1
:104200003EF757A3DA1E33B4E4CD7B9AC1BFE27EFA
:10421000468B7E913C5084B2F4698B6F7B2E276C69
:104220002F06C430ED4D230F0AA0837C2968F98F37
:10423000873597715623A05A84980AF34391CFAAE1
:10424000D5690D9473064F2E9FF2985CB412C64147
:1042500026F44AEA0190C3D3D0D1BBD189BB5E1505
:10426000FAC2729E9AAF3179AB55FC66B27C060DEC
:10427000067AFFFC877F8E90FFE7EFA801443D3070
:10428000D882DC81C253367D023E7388EB55D87AE2
:10429000A60C5D725BF583E09BCB7714794AA5A7EA
:1042A0003287481933132759D49FCD388ABB3F68CA
:1042B00092E4BAD1D28EBCDF3897C3C7816AA8B75F
:1042C000B3FEFBEA8EC29CAFED98016B7B6C1629A6
:1042D0007712F367D507E347F0CD2A8F939AE6B3B9
:1042E000E1A39AA2435ED1E0D110DA5FEAC953712B
:1042F00026CA902637E76C9F23AE5B410B7834C407
:104300001173D713E62B779435F4AC18C57DCC83A5
:10431000B0EC26E2179EBFB3A52C64525191560211
:10432000EF0FAEB5B73FFF81769F3B20039EC017CE
:10433000048F10FC01F23891D67C6E74F404A79AB5
:104340003D7A066DA50CEBA3ACAA5CFDFED2C18C38
:1043500048BC93EEC8FDD4EA546D30B50C66555F89
:10436000C963EABDD23E3E358990F5DD88CD7B90AC
:10437000A4C5C0D78979CA51EEBAE6262903397D8A
:10438000D6EF95F4A7816EB83235FD242B22760244
:104390001FE7950CA09A6E877052CEAB8F52C8F370
:1043A000B488FD84D8CBDB562DE4FF8798979EA870
:1043B00098BAEC6A57C112FB23900EBAE527776BC7
:1043C000AD2F419E3C80180119F0CFE1F78B1344CB
:1043D00005453B590FB23407E644B652C7211DF2DA
:1043E00014255E5B69FF21079D6AC1FEF7AC70A9C9
:1043F0000CBA164DB415737D20138E502704C4B12A
:104400007ACF86CAE2B6784239B6676D8FC541F574
:104410004DEA7512E944DFA6ABC29E4D920EE52C23
:10442000EF0E8A6B1E0D99AD8DAC41F030E66AF847
:10443000FE80F298B22F4B31C8B5A1E9ACD7D13389
:104440009F7BEB4CB947AEFF8EB3E12AEA2245E4ED
:1044500082D00890EB48EB511143FC5437C134979C
:1044600092F082DF09BE9F6F9FEEFF00EE3F7F3A22
:10447000A71720E881DF3C450E91F2D7449385CB06
:10448000EC2E4C471A9FF51B945D096302D788BB3D
:10449000D6165143C8F58169E0C6569F9EFBE84297
:1044A000FFC731ABEEF29D43527D428C4F471E5702
:1044B000DACA5A8EA37F7ECB6973677DF697646FE5
:1044C0000EBB4FD2AC883A2835A1F4CCAC0A58F5D3
:1044D00019B0E28A81F5DED338B1FE2456DA850EB2
:1044E0004851DA1703CA9E32CDCF677A8BEB30671B
:1044F000A7747A687E707EB63EE2F48AF54DD3FBEF
:10450000B5625EAFF701C0FFB7B7BFB74FFF4FCD82
:10451000FB9FE0E7DAE9DE3E629636FFC0BB1B3B5D
:1045200030366949D66191F0BFB0B5CEAAA0161950
:104530009E1B26AC940D712D6A488DD5F9A0516D46
:1045400016AFDC9E654FACF2D9A1BAD13881289262
:10455000B3B10A93A2F29A608050A9A7991794D98F
:104560003336BAF68A3ACB22A7CD3731EEE6EB1DC9
:10457000231EF67D874BDFE3C5D62174685861475B
:10458000458857F2D1E574A41E96BEC3A4CD11553B
:10459000B5B5A659C29F210F06394888E134FC7D84
:1045A000F98A2FCA6CADF93B9B2131BD4836C7E56E
:1045B0003BEBC153D63B44CEFAE67CFD0891E7B510
:1045C000D31727C83F6A1FE3D3393FD756E8EEE138
:1045D0002777770F6FCE119DDF3D6CAC465A615A3D
:1045E000D4568D2EB8B16FFD59EA5D88F7DCDBFF3C
:1045F000A7FFB8F29099B27BFB571EFED37FBCF5A4
:10460000C7B7FEF866FC8D03DFE178B3BE0AF69407
:10461000DDD1EDECDF78AFB3FF3EFDEEEFD5FF3F30
:10462000BD819FFB37CC134FEFAB3C32FB21338F67
:104630007FE3AAF90FB4B0E73FD447FCB4FFC3B798
:104640004F1881F9A6E6C3F81B67D64EBF78FA4526
:10465000CD8FC3954FBE0D9C79FE83C904478399C6
:10466000BD2D6A73FD4BCC72CDADF7D45F1B9E3967
:104670007A4169BDF4B2D89D7CA6459E053250565C
:10468000BEEDDC96461E24DDDDE36AE86F77F90EA9
:10469000726700D91AFE80ECDCA07F0EC81FBFE055
:1046A000FFFAEF9B35967C72B777B87954E3CC115B
:1046B0003319ED3DCBC40D39B70C33CD7648B3C2B9
:1046C0009926FCDF5C01FF371DFC7995EEE8D5F0FB
:1046D000FE28C6D89971D9BFF15ECABD80CF15DF5B
:1046E0007C7AC379E4523E1E70E1D31B8223A11F62
:1046F000600DF81313ECE7137DF3C50F86315FD41B
:1047000087DF13C4A4852000796EBE4EBCBFF58937
:10471000217F4B92BBCABDC1F46523A39D714B6839
:1047200053DB33F5B2739815742156305A177FAEA8
:10473000AFAA13C1A54AEE41366EEAFB677DC0BF42
:10474000A6E6A300FF83DD436003A8FBE69C1114EB
:104750007C26866C1EDDACB164F7B07710AE99DFB5
:104760003FA465530C2659FDBFFA407014464AB069
:1047700007F56466F3D34AE4F0076C8103F80BBFD6
:10478000ED330FFA5370C79B91FE0364B7DE735984
:1047900017FD1B776F20FFF67AA47B7C6614EE3D35
:1047A0001791BB1EF121D856351CE7E17780ED1338
:1047B00040FC8B27843A28FD8BC011C00DE609FA16
:1047C000E00CFB3F7CF3D4F65FC0FBA9BF012D4793
:1047D000D514743BE558B91756ABEBB146EB16FA56
:1047E000FB432B0859F0C47B61C0B321ADD449769B
:1047F0007FC4984475FA3EF1A444EFD4F7D507D5A9
:10480000640DE91FDCFCB3BDCFF66AE8060C20F4AA
:104810002919F47B9DD03F8494D84CF47FE630BABC
:10482000F15726E9D3CC2AEB2B824A798326A07D47
:10483000A5FE2DBA7FEB8FF619EB7025E182C19FA3
:10484000BCFCA304FF8F02CD1BCF3798E3DBFD1B1D
:10485000111BB62409BE0870243D7F1BB83C0E42D4
:104860009A479209C49027E7272F4E2817BEA9B16F
:10487000C0E4AFB417AE3C3CC2885F517ED3FACDE2
:10488000FB28797E9F550C863C48BC23791E2B481B
:104890005803D54D1694EFE5EC7DC066F199662777
:1048A0001D5F3C817C4A5E811AFEE4E607A8555BE9
:1048B0000FFC9F471B6B11387FFB941A80E4FF6647
:1048C000D4188C8F1B4F7235868DFD0AA8D399F7AB
:1048D0001A77863CE758ADBF0CFF371FAE823F2AE0
:1048E0003BE8DDEF06190E18F7DFFFF4C6FEFBA06C
:1048F0007AE4DC09E6EF357270AFC7588CA47F2DDF
:10490000FF0324E7019A803EDE96140E6E8F73E457
:10491000FDE1F713F8E0F0535CE0DBA7FEFDD40502
:10492000783A460477F790B80A7A011728924656E3
:1049300026F89CF5D5F5CC38322B1FC9FDF23E0682
:10494000D403152DDA1ECBB2329E6F92A69CA9839A
:10495000A6B88B3CA66E7F31440902FDDF0CDA1C41
:10496000E6BC19E14FD803F2FC4F9D30873FF43F7E
:10497000BECFB4D1117512ED235A7F9EE771AD6899
:10498000D985C849492E27C98E9FA06D1EE4FF3CDA
:1049900074F67C87B47125F2FFEB5196939E116DEE
:1049A000BD5DCB83B7C6FF6FF4D618BFFFFCF01711
:1049B000F57F54E1884338DD702BEA733F30D746EA
:1049C00050A50C80151E25FF13E3FCFCE68BC813D5
:1049D0006CFD4D76B38AC56456F78035815E132829
:1049E00067EADC68157D8CC0335E89FB3DE42D9E53
:1049F000A5AA1557F19759D799F5366E9E336EA52E
:104A000068DFE53BD0E66BC81EB4364EF6C0E1EF7A
:104A10001FEEBAA3977D0A32E2803AC1EEE1D4F5E7
:104A2000C71357F7E397C9F3683F7D97FDC9AC5BA0
:104A30001A3797FE477CE06FFBEC7504FDF57808AC
:104A40005A97666FD40DA8FFBF1125C09F1F02FAA9
:104A50007F7EF887876FFD96541F65FF569002D2C0
:104A6000EF9386472CF8861A40D401ED009FF82278
:104A70006006A586D7A4A8CF82EFB787A6B3008E1D
:104A8000BB87E4E0CC3876F099990C80CE473C07A0
:104A90009C91F9401EA008B6F25A15692465D367A7
:104AA00011ADD8A56ED59ADD249D6FD826D2FFE62C
:104AB0003769FF05FE6F547FFEE5F99735173826F5
:104AC000F717FDDF3F5C8FF49FE8D95BD165D346D4
:104AD0005657751FEFA2F403FFFF71FDFFCA85FA59
:104AE0007F177996A8B24B1C9F0732ADAE473CF8B2
:104AF000C55899B7CAC4AA39C5FB815BBC0FFE4F24
:104B00003AAE25FE937994FEF30CEEB409E601E685
:104B1000F0C5FEAFBF8013502ECC7FE07B4DC67C2E
:104B20003BE62E79DA07D5EE1E5AFEA98F66DB3EEC
:104B30008958BF37DEA6B4C37B4A1A127B047FC5EF
:104B4000B3AD8FC959DFB2B0E24A27D94BEC40B4BC
:104B5000CD7441ED2F9C32F82AB3FF7723FCC1F5C9
:104B600023BF0F70A72C1006E4FCDFEB19EAF65AFE
:104B70000C4CC21703AF87448C1DB0F733E7B20A61
:104B8000FEABE95F3222D3FF4BC0FE7A0736DE6D03
:104B900027E701FD4FDFBFDEF9C3BFFD62FCEF5722
:104BA000BFBEFAE9FBA4F75F041CB87B83FE01FCDF
:104BB0000C9ADED36F9E9AEE07FA17067C117902E3
:104BC0006504E18F9C0CF90ABE789A59D51BA25353
:104BD00042FFE6FC93BBDD435F93C6DA31EB1FE097
:104BE000D707D4AFB704B7C75FE407CC88B76A3636
:104BF000FA7FE5C5375A63F4451111AF577AFF9331
:104C0000EDC6438851FFBF79546B731BBB07DDC0F2
:104C1000E57B410AF456F0FFDEC1492D0108FFFB98
:104C200087C6D3DD5E1A5944C86C14F92B26B369C4
:104C30008AF8E4FAFFABC9FF7666FFEDBF4FDECF1F
:104C4000DFC8B1017F7F6B0C5DE0ADDFDEEE7C5D28
:104C5000433F6805F577BF18FFE1E1DF47C8C0852E
:104C6000BEC8BBF69326D70EDE0EF8BA4CFFFBF695
:104C7000C9374FA5FF592C065118E18A2A3121F373
:104C8000770FA19B18FC05B1D005E2C02A9198F9D5
:104C9000B8883D75A935827380E695BFFAC95DE194
:104CA000BC72E099D3623D1D086DDAE9EBF377EB56
:104CB000DFB2D2368FDE8D761B8F9BF1DC4DF71D78
:104CC000ECF9F55AE727FC711E5A6A4DFF47C83CBC
:104CD0000BF4FF65F87F4CDAAF57E6CBF313D87CC3
:104CE000D1FF17E9DFDBE58250F87BA8335C09FBD5
:104CF0001CAE1CEA73B761FFBDF90AFABF87BFE9B2
:104D0000F4D7438E3DF83A6A6DFFFD2AFFFAFA9711
:104D1000351E8CC517FEFC6F7F7E08D9406D10DFF5
:104D20007D413EFEE4DCFC5D81F301FADF3C95ADA4
:104D30000F6D8F90C76FF07FFA4329FFE1B187CEE7
:104D4000C477DA9C87371B026EE006BE8B80321474
:104D500063FC8EBA5B898C47D3F008E5B521E99FE7
:104D600058A4CAD6261F690DD6E5A599DBA760CF42
:104D700065B6FB4DF737B1619D3ADF21722664FFBE
:104D80003FF890929D1200B4202C872D8095A9AFFA
:104D90003A48FEBF79AFC61EC004FF01E12B0FF5F4
:104DA00017606C94CBB39EAAC1DD04C19F067FF34C
:104DB000FFEE47FF0EA07E1DF4FECB9AD67FFBF5DB
:104DC000D59ADBFFF6F3ABFD1BBF00165C251FA8D1
:104DD00039C36F99854D3DF0A3CE3721AE9E245E39
:104DE000E37DE74E03D82706FCE5D3682FD0474084
:104DF000DA27CE13B7DF9D13E329C3F1DDEE81AFD0
:104E000043EC1E1203925CACA50122FFD4FC780790
:104E1000EB98A83F18E6D8EF98D7568FBD1EBD7502
:104E2000F4D4AD0B0308F18015EBE96FFD04AFB8C6
:104E300019FC7AF70F2733C03F70F35AFF37EDBFE5
:104E400097D900260BF0FBABBD24FF2BC968726518
:104E50001D98BDFD85BFBD3CC7EA005760C13D1A26
:104E60005AD6BE71CE8B0EF20E567304FBBFBC1E1B
:104E7000BDFFD7B7905F1F28BE86F91F1EB2F30291
:104E80002DBDAF7F89EF02A6BC0F2CF9C3C3DBA9F0
:104E90004E13BA0D626BD1E37D1C3C1FE47C410FC5
:104EA0001006F8783CF12158874FD13902B38E545F
:104EB0003FDA3C0A3CE0A8E69207E20779FDD9E533
:104EC0003BF70F29C54356D2B89C3D1F920618FFE9
:104ED00000B5E4950C3E9B4D358DF8895CA4E49BB0
:104EE0008D904D1CDEE182E006EF6E8462F8044C8A
:104EF0002C069EFEE9FB132F84E6EFADFFA0FF1FFB
:104F000080FF07FFE011B88741585429FA376EF047
:104F100072FAF7F63F3F37F57F7E675AA2EC41F20F
:104F2000FFA8DDFFF6EFC3C0E11FBE57F3006A7BA9
:104F3000803F78C2F56007A0F6465E5FF27FD03F03
:104F4000A53D641EDF70F3682D793CA80B52FF4B22
:104F500039197F01FCBF887E81B553E46C50CB3793
:104F60000947BAB5CF9B73E3E0EC06B57B1873D362
:104F70001881DD20AFE79BC9E2B3D89F87BE3A9A7C
:104F800025AFE2C6CF3BC8FF371DFC37E76DE38492
:104F9000C7E977F8B499FB7F0EB6671E4FF55952F3
:104FA000CC8EE659E933F0E0FDB8FD271CB3AB2405
:104FB000319E0D49E7BF18FF7D88CA3AFE050B0FE9
:104FC0003F6B3E1F64428D07EFF7A39CA8AF829E04
:104FD000F05BF889E10BA6D76FBD7E676A4E35B7E7
:104FE0003C12ECDBF0033F91DD07DEFFBF82E60FF2
:104FF0001FC03C688CF327BD8E2A553CF71227D77B
:1050000067C29BB4E3EB50916D8C6E61785BBD170A
:1050100071895ABFD71C3CF7E71AA22A24F1EA8308
:105020009C677FB677BFE6DAF4E7F41C3FEF05FE36
:10503000DEABCFF3DB12FCFFE8DDA00B1CEE89DB5F
:105040006F4A47A87F8BA7C043A0A75392F40EE1F5
:105050003D7895C3F497E6DFCF86064DFA3C7E9CFB
:10506000FF37ECBF9A92FF00EAFEEDF5CEE735A7D9
:10507000A725088AFFF3BFE15B7A02A0EB41078016
:105080008DF0D66FFFFC30440AB66AAC802E771CD8
:10509000DEE748FA52FB387A019ED0C6E701CECF50
:1050A00048F0BCD607BF891EC272AC6E6506FF759C
:1050B000F4204B6F02FEDF8B50E7EA098EF0E8C365
:1050C00006BC7C873C923C117FD10B207D4814E3C9
:1050D0007B98480358867CE2F60192F7E3CFC0F153
:1050E0000F826C3F00FFEFC5F3677D554A615EDDBF
:1050F0004342BBA10B05FEDF3EC6DAD4F873E0EDF8
:105100007FE9F7ACB6F0B600F517C0542BB3E2AAAE
:105110006137F87FAF5CA0FFE5F19F3797F4BF5E82
:10512000B4F951576B7A1D2DBEFA3BDE1BF841A036
:10513000FDDF52EBFB4F79836B4E405FBEF4A4F56D
:10514000603985773F9637F89B10F3E5F1E90FF268
:1051500009EA3F63BCD0D70571549ABD5B6B01C8A7
:10516000D7C1E7B5D18B8FB1D6EA02485FA0AF694E
:10517000FAE4EE8B9DF608F0E7BA50DAE16D6501CE
:105180005A5F1C2FFF910D1424778CDAEA2768B33D
:105190008BCF4790D4FC7E339DE55F8CF44083FF3A
:1051A000E42E6CBEF523EAFFB82672FD63E7098A98
:1051B000F6C0E611E2FF8CFFAD47F8639EE71FD310
:1051C000E6B10C0D792FBD4D0FEB18546E9F61FFAA
:1051D000E5F07F59FCC7C3DFECBF8FA2E547E92E9E
:1051E000DB0EF8F0BF1FFEFE4F803FA89DFAFF2F99
:1051F000C6EF051DA1961723460801DBF3935E5AFF
:1052000021B38F4907C482FDA8F3431F948760FE32
:1052100044F11FC6EB44EBD04F6BBCC79A851AF61E
:10522000F6109A562FD23D63EC92DEB0FFD8AD9ABD
:10523000DDE250A546CD196F67FA323B2258673B35
:105240001DDD0EAD32E82FB0EBF099F8DB3BE44FFB
:10525000C0B1B64C8F79662DD03034DDDD4368B8EF
:10526000EB73C05FD03CD9A3BC80FF80F6A16996E8
:105270009B31E3C7F17F788C2A66EC10BED0F9C869
:10528000B5AEB8C8BD7DC737E355BA96F4DFF4FFB5
:105290004877CC6D4AF18D3CFE6B5EDFFD1B9F5F56
:1052A000FDFC2A6D3DF8776A9DEF8FFFF9F076D00F
:1052B000066819ECBF1FAAF0034630321CF8FF69DC
:1052C0007CAF839B917AA2F61C56F45B17F5FF36F0
:1052D0007988D78EE7412F0C79F225B1999E7EF817
:1052E0000140FBA4578BA5F8CE541EFECCB1A70CF1
:1052F000902641FB515A21FD41D2A472F8332B87ED
:10530000F4497CE5CFDD43FD6CF39B63FA75D68FE2
:1053100078F5E651FB54F0A7AD48F8F70EE4DD57F9
:10532000E687B32715FFF7FC3FF0BDF690782AFE1D
:1053300015E63D14AC680F926EF959575D79D87334
:10534000F40FC92EAEE7AD497E271CC9FDFFCAE7A1
:10535000511450963E7D81F0F5FDE7BFE1EF3F3FF0
:10536000FCC3BFF10C2D81F778C7D637C1EB4FAB2B
:10537000B75B1F7C43EF3BC3EA7D11EDC076B00BFA
:10538000D99D0579215F3CA5FF951A5BCDCD0EC156
:105390001FBD1454ECA7E9BD6124971123E447F322
:1053A0002E753D55C748E9D2CDCE66D6C3ECC509AA
:1053B000E04B4F0D28BF0D6CA8ADD808EDB9BED796
:1053C000E7F579C29263600CF93FBDB9F0FF25F9AA
:1053D000D7880108C37699FF15D6A65B6B0FE4D674
:1053E000F94FC82FEAEF80A37E36AF2257F7FE9F12
:1053F0009F12FFD97F9F74FC8BB138BF7C7DFFE784
:105400002ABC025F5FFDFBA8E60BBFAC71E18FB762
:105410003B9F5F554746E00AF284D68EBF09F69F50
:10542000D79A64298B1BC803EA7522E68BC0FF4B11
:10543000DF3D383D9EA1E88F597FCADFF0F087EC51
:105440007F3EB4BC75F4FA23ACC9FDE801A0EE6759
:10545000F1DF26FF403628E99BF62AE97CF3085E57
:10546000DB9B827CF0DA524AB42505E2B5823F3DEF
:1054700008BD94FFB77E94F9C38E8509A479AECC9C
:10548000CD98FF2368D27F659F8905940CF8066745
:105490002425FC55A1CBA1D31857E57FCA7724CF8B
:1054A00002E52A7C40DDF2FAD6ED5C06BC0F1EF068
:1054B000F9D5D6C6D757DF1A83E221E55B1BFD1B62
:1054C0001FD5F2A01FF203E103561ED83C4472B16F
:1054D00046F7937564FE2FF2BAE40F71DEC1DA0667
:1054E000083EE310451FD37F7B3F70795AFC90FE46
:1054F000EA240E1D58D25F1100F6FFB7880923FF7A
:10550000D08D68032AEEC3D88FB881B706BB615728
:10551000708325681B384AF8DE4C506E07FA7F719D
:10552000B21EEC7AD07AD0E4E6D409C4FF03370F78
:10553000F1FF65CFDF7D471B277B87B59420FDF703
:105540000E2733A379A372C5EC48F9CD33F9555E24
:10555000FFCF3547C57CE429526CC5DB7F8F87FDC3
:105560001B79AE2F3CFE5F072DE076E7EE8D7BD7F3
:10557000BEFE2524446B03940FBF1FE244807E3F90
:10558000460099C7394F3A00ECA4FB07F6FEA297F4
:10559000B553715278D9CE4FBE88FA00B37AD56D23
:1055A0009B311CF842CF7750317CA97529540D03EB
:1055B000C70D03D4D5B70871F12272003C81D047E2
:1055C00076136401AA9571BFFA5BE5DE805EA89B45
:1055D0002715335FEBDD0053C9F7C8FF8FA3FCC766
:1055E0003780F811FD3BE4199B47AD0AF007FDDF5A
:1055F0004FFE9F65DE1FF3814E15FF31F9FFB3F9B2
:10560000BFD3FF5E35FFCB30C6FC7F8802FD3F5A1B
:1056100080EFB3EBEAD75701757C8F980034C2FF57
:10562000FD10D7FD7D18A245110318E34514E0DDF8
:105630007937F37E77A31C580FD990CA7F588F3AD9
:10564000A16286AA82EB861E42A6A7B73602F46B39
:10565000F8D7FF2FB1B3A160A77A3AED7D57841E2A
:10566000FDC819E33A30CB83D883BB2F5D828750C6
:1056700091A4D4BF2CD88E81EE8F849D09DAC79B6C
:1056800049FE9B5EF8E24BF17FE8079409E2FF9B3D
:1056900031FE97C1FFF485C5FE8FDBA78AFFC4FCEE
:1056A000CF103D92B4134F871607C85F4959BB808E
:1056B0009DF4634A017C6A8F24FF73FB4FB8D28448
:1056C0003F9EFEE64AF85F0F79DC8C0020BE8B68B7
:1056D00060BFE6029000F406220A84CFE0FBD0FE11
:1056E000942F04AF002DB990F9710CECEE1D768D5E
:1056F000FA0FA2AFE328FA87E01D8CDAE03CC48BF6
:1057000061FF4D42FDDA82D9FD1BE0F5E8DA05CAFA
:105710008DF00B07343C83BF6A37990B6739DFB4D0
:10572000F020D97EA73BF19C4BE85AE07BE0691F53
:10573000A56240CD5EFA1F753A566A38C81F39898E
:105740007F246B80F05CF4D13B11EF76BFE6FFF76E
:105750001BB24FDE248BFE74836FD1E04F08799A21
:1057600026E5BFBAFE67F4FF6AFE3FF0C604FF32CB
:10577000FAF6B698ED49EBEE76CCED0C59C05BFC31
:1057800074BDD6FF60F501FA1F753E0D5162580DCC
:10579000C8E155847FFE43900207F6C6F7832F9435
:1057A000F421CFD837292B103681CBBFABD8B9899C
:1057B000D47FC9C36F0DBD23E40544073BF45F5894
:1057C000F4B35A8C903F42EDFFCD870F3E4CF0274B
:1057D0000EAD8183A88705F71F60DE05A9FC5CF08C
:1057E0000F3FDB49E78765D04E5A00CFAED7965FB3
:1057F0003B4A899BC9FE27FDF70E6FCE53FC5F59CC
:10580000A029120CAED13B804DCB35E925FEBFCC93
:10581000054CFF6B527E7E9587FFABD4FF58FC474B
:10582000F6BFEA79F6432588FC801F050FF047D1C3
:10583000CB17E2FE439CA375C04E6D9001518F3F84
:105840009E3FD9FFE11FBFAB31E078B781FDF08704
:10585000D03BCC78F017D1134409B04859EE21B3AE
:105860006A0371C0B5E11B6F07C85D22E4D95740D8
:105870003BCAC0E71B3A87E41D6F6A3E805802DED0
:105880000E359EF1FE967521A31D81ECAF50F718E1
:10589000332E0DEEE0F980F9CDF0933E9FDD43C04D
:1058A000D0E89FFCBF7D6A5AA2833FE5FF919EE648
:1058B0006CC0F4A911FF392C063F57FFEB35E0FF10
:1058C00032FBEFCA6AF8BFAFCC5FC25A5E40C09AE3
:1058D0001DF7A4EDD347A86A31F6E48AF9FDCAF2B0
:1058E000FB8132DE3C5D963323A94FBF1F73433EDD
:1058F000FD81F9BBAA62672CB83D02F5FE2EC15EA0
:10590000DD10D0A136EEE8318835CE1573E650377C
:10591000B23D63276BC8FF7BD7783F214FAD8FF92E
:105920009F35063183B6620F9576B2E903648F2501
:10593000BF7B873873FF10544C5F10B8BCE04FCC6E
:10594000583B7E773E9D05F97F44FDDF74FF5E8AFC
:10595000169B3D2C0BE0E4012822F87F2B7AE8E827
:10596000CDE1674156F98BCD338C0CEBAAC7435D73
:10597000F78AF53F43D907F41E33D24B9D4F351DAF
:1059800096DD7D3DF6DDBBAE5E8CE1DB4F837E18A0
:105990002A843A56DF81DA8E7A658E0563AED5BBEE
:1059A0007359FB739F13FA945900FB3F28775B3BB5
:1059B000DBDFBB06E90DFA27EC6C2718F805D539B3
:1059C000D26A746CE70766C93132EA7BCDD97E189A
:1059D000DC7FC4E771B706C8DC973FA67740AA5CB6
:1059E000773FE9B5BD7954EBF7079BCE9BAB9800A9
:1059F000F57FF3FFC05720BB1F395FD2FF832D70A7
:105A0000BC767CDFF17F8BFFC8A72BFFFE9587F26A
:105A10007C506B37CFAE24C2F98E3438EFD77DB5CA
:105A2000F88FEE78B1D3EDDCEEA4FC9F5AFE7F9A9E
:105A3000ACC18FD21E0CF2F7F0CAEB51F313C67C47
:105A40001BF3FC99FB3B8FB11E54F67DF314EFCC96
:105A5000B3F81B19BF5F842A11E50233FFC7E5BF06
:105A6000066A46D5AEE8D6BA1882BBA6AEC155E8DE
:105A70005ACEECCC4A39F2F206B2BB2CA95EBE116A
:105A8000DB058335B526FF69872B82C79C9E14F3FF
:105A900039A2A7DEE23FF8A6CBC8CFA120E8F9FFE4
:105AA000FD43C50F8403CC8A94FF6B33D47FEEC6CD
:105AB0002821F2FF15D9A1B56E36BBE8577BE0F877
:105AC000F3F61311BCD78FFF18FF7F36F496FFFE55
:105AD0000DDF7BB97FA31FABBDE81B665DE047B15F
