S015000066743878785F636861707465722E73726563C7
S113000048290020851400007D1500007D1500009E
S113001000000000000000000000000000000000DC
S11300200000000000000000000000007D1500003A
S113003000000000000000007D1500007D15000098
S11300407D1500007D1500007D1500007D15000064
S11300507D1500007D1500007D1500007D15000054
S11300607D1500007D1500007D1500007D15000044
S11300707D1500007D1500007D1500007D15000034
S11300807D1500007D1500007D1500007D15000024
S11300907D15000000000000000000007D15000038
S11300A07D1500007D1500007D1500007D15000004
S11300B00000000010B5064C2378002B07D1054B37
S11300C0002B02D0044800E000BF0123237010BDC0
S11300D04804002000000000FC850000084B10B517
S11300E0002B03D00749084800E000BF0748036815
S11300F0002B00D110BD064B002BFBD09847F9E72D
S1130100000000004C040020FC850000FC85000079
S11301100000000080B584B000AF0200FB1D1A701F
S1130120FB1D1B789BB2094A19001000084B984725
S113013003001A000E23FB181A800E23FB181B88D9
S1130140DBB21800BD4604B080BDC04600100042BA
S1130150150C000090B583B000AF04000800110036
S1130160FB1D221C1A70BB1D021C1A707B1D0A1C6D
S11301701A7000210E200D4B9847FB1D1B781800A8
S11301800B4B9847BB1D1B781800094B98477B1DE8
S11301901B781800064B984701210E20034B984703
S11301A001231800BD4603B090BDC046390B0000C2
S11301B01501000080B584B000AF78600A00FB1C14
S11301C01A707B68802212041343FB6000210E2006
S11301D0104B9847FB681B0CDBB218000E4B98477A
S11301E0FB681B0ADBB218000B4B9847FB68DBB2B9
S11301F01800094B9847FB1C1B781800064B9847BE
S113020001210E20034B984701231800BD4604B07A
S113021080BDC046390B00001501000080B584B0D4
S113022000AF78600A00BB1C1A807B68802212042D
S11302301343FB6000210E20144B9847FB681B0CF2
S1130240DBB21800124B9847FB681B0ADBB218009C
S11302500F4B9847FB68DBB218000D4B9847BB1C4B
S11302601B88DBB218000A4B9847BB1C1B881B0A6F
S11302709BB2DBB21800064B984701210E20034BBA
S1130280984701231800BD4604B080BD390B000017
S11302901501000080B588B000AF786039607B68D4
S11302A0802212041343BB61BB691B0CDAB20C231A
S11302B0FB181A70BB691B0ADAB20C23FB185A70BC
S11302C0BB69DAB20C23FB189A703B68DAB20C23D0
S11302D0FB18DA703B681B0ADAB20C23FB181A719C
S11302E03B681B0CDAB20C23FB185A713B681B0EDB
S11302F0DAB20C23FB189A7100210E20134B984795
S11303000023FB6116E0124B0C22B918FA698A1813
S113031012789A62C0460E4B1B7EDBB21A0002238F
S11303201340F8D00A4B9A6A1723FB181A70FB691A
S11303300133FB61FB69062BE5DD01210E20034B34
S1130340984701231800BD4608B080BD390B000052
S11303500010004290B585B000AF78607B68FB6008
S113036000210E201B4B9847FB681B0CDBB21800C6
S1130370194B9847FB681B0ADBB21800164B9847C9
S1130380FB68DBB21800144B98470020124B9847C7
S11303900B23FC180020104B9847030023700A23FA
S11303A0FC1800200C4B98470300237001210E20F9
S11303B0084B98470A23FB181B789BB21B029AB27E
S11303C00B23FB181B789BB2D3189BB21800BD46B5
S11303D005B090BD390B00001501000080B584B054
S11303E000AF78600A00BB1C1A80BB1C1A887B68AB
S11303F0D318FB60FB68064A934204D9FB68054A9C
S113040094466344FB60FB681800BD4604B080BD9D
S1130410FF0F000000F0FFFF80B584B000AF0200C2
S1130420BB1D1A800E4B18000E4B984703001A0090
S1130430BB1D1B889B1A9AB20E23FB181205120DC2
S11304401A800C23FB180E22BA18128806498A1A3D
S11304501A800C23FB181B881800BD4604B080BD0D
S1130460F820300055030000FC0F000090B585B063
S113047000AF78600A00BB1C1A807B689BB20E2216
S1130480BC181800074B9847030023800E23FA1862
S1130490BB1C12881B889A42EFD3C046BD4605B0E8
S11304A090BDC0461904000080B582B000AF0200C0
S11304B0BB1D1A803B1D0A1C1A80BA1D3B1D1288E5
S11304C01B88D3189AB2BB1D1205120D1A80BB1DCE
S11304D01B8803339AB2BB1D07490A401A80BB1D0F
S11304E01B88064A19001000054B9847BB1D1B8842
S11304F01800BD4602B080BDFC0F0000FC20300097
S11305001D02000090B583B000AFBC1D0F4B180056
S11305100F4B9847030023803C1D0E4B18000C4BD7
S11305209847030023803A1DBB1D12881B889A42FA
S1130530EBD1BC1C074B1800054B984703002380E4
S1130540BB1C1B881800BD4603B090BDF8203000CA
S113055055030000FC20300090B589B000AFF8606E
S113056008007A6019000A23FB18021C1A80082369
S1130570FB180A1C1A800023FB610023BB61FB6883
S11305808022120413437B610823FB181B88FB6140
S11305900A23FB181B881800424B984703001A1EB5
S11305A0FB699A4207D20A23FB181B8818003D4BAB
S11305B098470300FB610A23FB181B88FA6992B26F
S11305C011001800384B984700210E20374B9847EC
S11305D00A23FB181B88C222920394466344802298
S11305E0120413437B617B691B0CDBB21800304B94
S11305F098477B691B0ADBB218002D4B98477B692F
S1130600DBB218002A4B98470023BB6115E0294A46
S11306107B68591C79601B789362C046254B1B7E0E
S1130620DBB21A0002231340F8D0224B9A6A132338
S1130630FB181A70BB690133BB61FB695A1EFA616E
S1130640002BE4D1BB69FB6101210E20174B9847B5
S1130650FB699AB20A23FC180A23FB181B881100B1
S11306601800154B9847030023800A23FC18134BEA
S1130670984703002380FB699AB20823FB180821DA
S1130680791809888A1A1A800823FB181B88002BFA
S113069000D079E70A23FB181B881800BD4609B06F
S11306A090BDC046190400006D040000390B000021
S11306B01501000000100042A90400000505000017
S11306C0B0B58AB000AFF860B9607A600023BB614E
S11306D000237B6100233B620023FB61474B18002E
S11306E0474B98470300BB61464B1800444B98475F
S11306F003007B617A69BB699A42EFD12623FB1818
S11307007A691A802623FB181B88C22292039A183E
S1130710DE235B42190010003B4B98472623FB184D
S11307201B8804211800394B984702002623FB1824
S11307301A802623FB181B88C22292039446634422
S1130740BA6811001800304B98472623FB181B8801
S1130750042118002D4B984702002623FB181A8009
S11307600023FB6126E07B68294A934203D9802356
S11307709B013B6201E07B683B622623FB181B88DC
S1130780C22292039818FA68FB69D2183B6A9DB298
S11307902623FC182623FB1819882B001D4DA84777
S11307A003002380FA693B6AD318FB617A683B6AC9
S11307B0D31A7B607B68002BD5D12623FB181B88BA
S11307C0104A19001000144B98470C4B18000C4B9E
S11307D098470300BB610B4B1800094B9847030073
S11307E07B617A69BB699A42EFD12623FB187A6947
S11307F01A80C0461800BD460AB0B0BDF8203000CB
S113080055030000FC20300095020000DD030000C9
S1130810FF1F0000590500001D02000080B500AF55
S1130820024B9847C046BD4680BDC046650C0000DB
S113083080B500AF024B9847C046BD4680BDC04658
S1130840B90C000080B500AF054B5B78DBB25BB23E
S1130850002B01DA012300E000231800BD4680BD0F
S1130860000C004080B584B000AF78600023FB60CA
S11308700023BB607B685B781B027A6812781343A1
S11308801A007B685B681343FB607B681B891B024F
S11308907A6812781343BB60C0460B4B9847031E1B
S11308A0FBD10A4B98470A4BBA689A60C046064B7C
S11308B09847031EFBD1064BFA685A60054B9847CC
S11308C0C046BD4604B080BD450800001D080000B8
S11308D0000C00403108000080B584B000AF78609F
S11308E00E23FB1800221A807B685B781B021AB265
S11308F07B681B781BB213431AB27B685B881BB2FC
S113090013431AB20E23FB181A80064B9847064A63
S11309100E23FB181B885380044B9847C046BD46E2
S113092004B080BD1D080000000C00403108000028
S113093080B582B000AF00237B600CE07A681300BE
S11309405B009B189B000F4A9B1818000E4B98479E
S11309507B6801337B607B68082BEFDD00237B60C1
S113096009E07B689A00094BD3181800084B984794
S11309707B6801337B607B68172BF2DDC046BD4684
S113098002B080BD00000020650800006C0000205B
S1130990D908000080B584B000AF0200FB1D1A70B6
S11309A00023FB60FB1D1B782022134001D0002391
S11309B01BE0FB1D1B78C0221340402B0BD002DC34
S11309C0002B05D010E0602B08D0802B09D00BE061
S11309D0084BFB6008E0084BFB6005E0074BFB603D
S11309E002E0074BFB60C046FB681800BD4604B03C
S11309F080BDC046004400418044004100450041A0
S1130A008045004180B586B000AF786000237B61EB
S1130A101223FB1800221A801023FB1800221A80CC
S1130A207B68002B02D101235B427CE07B681B784E
S1130A3018003F4B98470300FB60FB68002B02D172
S1130A4001235B426FE07B681B781A001F2313406D
S1130A5001229A4013007B611223FB187A691A80E1
S1130A607B691A0C1023FB181A8000237B617B68B6
S1130A705B78012B08D17B68DB781A067B6913430A
S1130A802C4A13437B6123E07B689B781A00402344
S1130A90134001D1002201E080239A027B689B78F5
S1130AA0190020230B4001D1002301E08023DB0245
S1130AB01A437B689B78190010230B4001D1002353
S1130AC001E08023DB0313431A007B6913437B613A
S1130AD0FB681B687A68927852B2D2B2D209D2B259
S1130AE011007A68127810001F22024091400A0017
S1130AF01A43FB681A601223FB181B887A69134394
S1130B007B611223FB181A887B691A43FB689A627B
S1130B101023FB181A887B691343802212061A4398
S1130B20FB689A6200231800BD4606B080BDC0462B
S1130B30950900000000015080B584B000AF0200A8
S1130B40FB1D1A70BB1D0A1C1A70FB1D1B781800B4
S1130B50104B98470300FB60FB68002B02D1012374
S1130B605B4213E0BB1D1B78012213405A1E9341C4
S1130B70DBB2BB60FB1D1B781F221340BA689A408E
S1130B801300BB60FB68BA681A6100231800BD46F5
S1130B9004B080BD9509000080B582B000AF7860D4
S1130BA07B681B6802221A437B681A6001231800C1
S1130BB0BD4602B080BDC04680B584B000AFF860C9
S1130BC0B9607A601A00FB1C1A70FB68074A1A6045
S1130BD0FB68802292025A60FB68FA1C12781A732E
S1130BE001231800BD4604B080BDC0460C0030008F
S1130BF080B582B000AF78607B681B7EDBB21A00E0
S1130C00022313405A1E9341DBB21800BD4602B0C2
S1130C1080BDC04680B584B000AF78600A00BB1CBC
S1130C201A80BB1C1B88DB05DA0D7B689A62C04600
S1130C307B6818000A4B984703001A0001235340AD
S1130C40DBB2002BF4D17B689A6A0F23FB181A706D
S1130C500F23FB181B781800BD4604B080BDC046A6
S1130C60F10B000080B582B000AF104B1B68002B65
S1130C7012D1EFF310837B607B68002B09D172B62D
S1130C80BFF35F8F0A4B00221A700A4B01221A70BD
S1130C9002E0084B00221A70044B1B685A1C034BD9
S1130CA01A60C046BD4602B080BDC0466404002040
S1130CB0CC0000206804002080B500AF0B4B1B68FB
S1130CC05A1E0A4B1A60094B1B68002B0AD1084BA9
S1130CD01B78DBB2002B05D0064B01221A70BFF340
S1130CE05F8F62B6C046BD4680BDC0466404002026
S1130CF068040020CC00002080B582B000AF78608A
S1130D007B6801225A607B6800225A707B68062245
S1130D101A707B6800221A727B6800225A72C046DD
S1130D20BD4602B080BDC04680B582B000AF7860D9
S1130D307B6803221A707B6800225A707B68012248
S1130D409A70C046BD4602B080BDC04680B582B030
S1130D5000AF0200FB1D1A70034AFB1D1B781372BF
S1130D60C046BD4602B080BD0004004080B582B0DC
S1130D7000AF0200FB1D1A70BB1D0A1C1A70FB1D7C
S1130D801B78012B08D0022B0BD0002B0ED10B4A61
S1130D90BB1D1B7853720BE0084ABB1D1B78937272
S1130DA006E0064ABB1D1B78D37201E0172300E05E
S1130DB000231800BD4602B080BDC04600040040B8
S1130DC080B582B000AF0200FB1D1A70084AFB1DFB
S1130DD01B780F210B40D9B253680F200140490002
S1130DE01E2083430B435360C046BD4602B080BD02
S1130DF00040004180B500AFC046044BDB681022C0
S1130E001340FAD0C046BD4680BDC046000800402D
S1130E1080B500AF0C4B02229A840C4B98470A4AC7
S1130E200B4B9B68D362084A094B5B689362064B81
S1130E3000229A84054B9847034A054B1B689BB2D2
S1130E409384C046BD4680BD00080040F50D0000F7
S1130E506C04002080B584B000AF78601A4B1B6A24
S1130E60FB607B681B781A1C03231340DAB20D2342
S1130E70FB1803210A4010001A7803218A43111C2D
S1130E80021C0A431A707B689A780C23FB18D00161
S1130E901A787F210A40111C021C0A431A707B68CD
S1130EA05A780C23FB1801210A4090011A7840213A
S1130EB08A43111C021C0A431A70034BFA681A6213
S1130EC0C046BD4604B080BD0008004080B582B075
S1130ED000AF78607B681B7A9B021B041A0C7B684A
S1130EE05B899B059B0D1A432A4B5A607B689A7950
S1130EF07B68DB791343DBB21A007B685B8813439E
S1130F007A6892881A437B685B78DB011A43214B29
S1130F101A607B681B78042B16D17B681B7B9B06AD
S1130F201A007B68DB891B0419001B4B0B4013431D
S1130F307A68128A1A43174B9A60164B1B687A68B0
S1130F4012781A43134B1A607B681B78202B1CD130
S1130F507B681B7B9B061A007B68DB891B041900DA
S1130F600D4B0B4013437A68128A1A43094B9A605B
S1130F70084B1B687A68127804210A43D2B21343DF
S1130F808022D2001A43034B1A60C046BD4602B009
S1130F9080BDC0466C0400200000FF0380B582B011
S1130FA000AF0200FB1D1A70FB1D1B78082B3BD8F9
S1130FB09A00214BD3181B689F46204B1F4A126A84
S1130FC002210A431A62002331E01C4B1B4A926936
S1130FD002210A439A6129E0184A184B1B8A9BB2E2
S1130FE002210B439BB2138220E0144A134B9B8AC9
S1130FF09BB202210B439BB2938217E0104B1B68F8
S113100002221A430E4B1A600E4B98470EE00B4A0D
S11310100A494423CB5CDBB202210B43D9B24423FB
S1131020D15403E0002302E0172300E0002318005A
S1131030BD4602B080BDC0468429000000080040BF
S11310406C040020110E000080B582B000AF3B009C
S113105001221A7000237B6009E07B68DBB23A004E
S113106011001800054B98477B6801337B607B684F
S1131070242BF2D9C046BD4602B080BDA91300009E
S113108080B5A0B000AF274BC222D2009A600020E6
S1131090254B9847254B98477C23FB181800244B75
S11310A098477C23FB1800221A707C23FB1801222A
S11310B09A707C23FB1800225A707C23FB181800BA
S11310C01C4B984706201C4B98471C4B9847002004
S11310D01B4B9847002100201A4B98470021012000
S11310E0184B984700210220164B98473B1D1800C7
S11310F0154B98473B1D06221A703B1D01225A606E
S11311003B1D00221A723B1D00225A723B1D19001E
S113111000200E4B984700200D4B9847C046BD4613
S113112020B080BD00080040C10D0000491000003F
S1131130290D0000550E00009D0F0000F91100005C
S11311404D0D00006D0D0000F90C00002912000087
S11311504D13000080B582B000AF02003960FB1D62
S11311601A70FB1D1B78012B0AD0022B0FD0002B09
S113117014D10E4B0D4A91693A680A439A610FE003
S11311800A4B0A4AD1693A680A43DA6108E0074B14
S1131190064A116A3A680A431A6201E0172300E01A
S11311A000231800BD4602B080BDC04600040040C4
S11311B080B500AF024B9847C046BD4680BDC046CF
S11311C0650C000080B500AF024B9847C046BD4691
S11311D080BDC046B90C000080B500AF054B5B78FC
S11311E0DBB25BB2002B01DA012300E0002318001C
S11311F0BD4680BD000C004080B500AF0821002032
S1131200074B9847074B01221A70C046054B1B78C1
S1131210DBB21A0001231340F8D1C046BD4680BD9D
S113122055110000000C004080B586B000AF0200EC
S11312303960FB1D1A70FB1D1B787B61FB1D1B783D
S11312403B613B681B781B021A007B6913437B617B
S11312503B685B78002B04D07B698022D202134365
S11312607B613B685B7A002B04D07B69802212038C
S113127013437B613B685B68012B2CD93B685A683C
S11312803B685B68013B13401AD10023FB600223D7
S1131290BB6005E0FB680133FB60BB685B00BB60BF
S11312A03B685A68BB689A42F4D8FB681B023A69E7
S11312B013433B617B698022520313437B610AE041
S11312C03B685B681B023A6913433B617B6980227C
S11312D0920213437B613B681B7A002B04D07B6929
S11312E08022920313437B61C046134B9847031E2D
S11312F0FBD1124B9847124AFB1D1B781370C04652
S11313000D4B9847031EFBD10E4B3A699A60C046B9
S1131310094B9847031EFBD10A4B0A4A51688022A5
S1131320520211407A690A435A60074B9847C046F3
S1131330BD4606B080BDC046D9110000B111000001
S1131340080C0040000C0040C511000080B582B0BC
S113135000AF0200FB1D1A70C0460E4B9847031ED7
S1131360FBD10D4B98470D4AFB1D1B781370C046EB
S1131370084B9847031EFBD1094B094A5268802148
S113138049020A435A60074B9847C046BD4602B01B
S113139080BDC046D9110000B1110000040C00400A
S11313A0000C0040C511000080B584B000AF0200FD
S11313B03960FB1D1A70FB1D1B78FB603B681B78B2
S11313C01B021A00FB681343FB60FB1D1B7818000B
S11313D0044B9847044BFA6892B25A80C046BD4603
S11313E004B080BDED130000000C004080B584B053
S11313F000AF0200FB1D1A701C4B98471C4AFB1DD2
S11314001B7813701B4B5B881B051B0FDBB2FB6047
S1131410184A538818490B405380164A154B5B8869
S11314209BB216490B409BB25380C046114B5B885C
S11314309BB21A008023DB011340F7D10D4AFB68ED
S1131440DBB2191C0F230B40D9B25388081C0F219F
S11314500140080208490B40191C031C0B4353802C
S1131460074B9847C046BD4604B080BDB11100008B
S1131470020C0040000C0040FFF0FFFFFFBFFFFF25
S1131480C511000080B582B000AF2F4B7B602F4B9D
S11314903B607A683B689A420CD007E03B681A1DAF
S11314A03A607A68111D796012681A603A68284BAC
S11314B09A42F3D3274B3B6004E03B681A1D3A6021
S11314C000221A603A68244B9A42F6D3234B7B607D
S11314D0234B7A68FF218A439A60224A90235B0057
S11314E00221D150204AD37803218B43191C0223B3
S11314F00B43D3701C4AD3780C218B43191C08234B
S11315000B43D370194A937B30218B43191C20233E
S11315100B439373154A937B0C218B43191C0823AB
S11315200B439373114A937B03218B43191C0223AE
S11315300B4393730E4A536880210B4353600D4B46
S113154098470D4B9847FEE7FC85000000000020FB
S1131550480400204804002048090020000000003E
S113156000ED00E0007000410050004100480041DF
S11315700040004185270000BD1D000080B500AF7C
S1131580FEE7C04680B584B000AF78600A4B1B68A4
S1131590002B02D1084B094A1A60074B1B68FB60F9
S11315A0054B1A687B68D218034B1A60FB68180055
S11315B0BD4604B080BDC0468404002048290020F4
S11315C080B582B000AF78607B6801225A607B6886
S11315D000225A707B6806221A707B6800221A72F5
S11315E07B6800225A72C046BD4602B080BDC04628
S11315F080B582B000AF78607B6800221A707B6887
S113160000225A807B6800229A807B6800229A71AB
S11316107B680022DA717B6801225A707B6807229A
S11316201A727B683F225A817B6801221A737B6895
S11316300122DA817B6806221A82C046BD4602B0C6
S113164080BDC04680B582B000AF02003960FB1D8A
S11316501A70FB1D1B78012B0AD0022B0FD0002B14
S113166014D10E4B0D4A91693A680A439A610FE00E
S11316700A4B0A4AD1693A680A43DA6108E0074B1F
S1131680064A116A3A680A431A6201E0172300E025
S113169000231800BD4602B080BDC04600040040CF
S11316A080B582B000AF0200FB1D1A70084AFB1D12
S11316B01B780F210B40D9B253680F200140490019
S11316C01E2083430B435360C046BD4602B080BD19
S11316D00040004180B582B000AF7860C0467B68AE
S11316E05A1E7A60002BFAD1C0461800BD4602B0DB
S11316F080BDC04680B586B000AF3B1D1800054BC9
S113170098473B1D1800044B9847C046BD4606B099
S113171080BDC046F1150000CD0E000090B585B027
S113172000AF0F23FC180520114B984703002370CA
S1131730104B98470E23FC1807200D4B98470300C5
S1131740237002200C4B98473B0018000B4B984722
S11317503B0007221A703B0001225A603B0019002B
S11317600020074B9847C046BD4605B090BDC04613
S11317709D0F0000F5160000A1160000C115000021
S11317802912000080B586B000AFF860B960190076
S1131790BB1D1A803B1D0A1C1A80FB68002B54D009
S11317A0FB68BA681A60FB68BA1D12889A80FB68E5
S11317B03A1D1288DA80FB682022BA1812881A812E
S11317C000237B613EE0F9687A6913009B009B1853
S11317D09B00CB180C3300221A80F9687A69130035
S11317E09B009B189B00CB180E3300221A80F968CB
S11317F07A6913009B009B189B00CB1810330022BE
S11318001A60F9687A6913009B009B189B00CB1837
S1131810143300221A60F9687A6913009B009B183C
S11318209B00CB18183300221A80F9687A691300D8
S11318309B009B189B00CB181C3300221A607B6909
S113184001337B617B691F2BBDDDC046BD4606B0FD
S113185080BDC04690B587B000AF78603960002382
S11318607B6101233B610023FB6044E079687A6972
S113187013009B009B189B00CB1810331B68002B94
S113188036D13B68188879687A6913009B009B18E5
S11318909B00CB180C33021C1A803B68588879686B
S11318A07A6913009B009B189B00CB180E33021C13
S11318B01A803B68596878687A6913009B009B1802
S11318C09B00C318103319603B685C6879687A69B7
S11318D0102013009B009B189B00CB181B1804338B
S11318E0220013CA13C37B69FB6000233B6102E03F
S11318F07B6901337B613B69012B02D17B691F2B1F
S1131900B4DD3B69002B01D1FB6801E001235B429C
S11319101800BD4607B090BD90B585B000AF7860A3
S11319200023FB6059E07968FA6813009B009B1858
S11319309B00CB1810331B68002B4BD07968FA68D6
S113194013009B009B189B00CB1818331B88002B9B
S113195020D17968FA6813009B009B189B00CB1870
S11319601C331B68002B15D07968FA6813009B00A0
S11319709B189B00CB181C331C687968FA681020EC
S113198013009B009B189B00CB181B1804332200E8
S113199013CA13C37968FA6813009B009B189B0051
S11319A0CB1818331B88002B14D07968FA681300FD
S11319B09B009B189B00CB1818331B88013B98B2E3
S11319C07968FA6813009B009B189B00CB181833A6
S11319D0021C1A80FB680133FB60FB681F2BA2DD2D
S11319E000231800BD4605B090BDC04690B585B033
S11319F000AF04000800BA6019000E23FB18221C73
S1131A001A800C23FB18021C1A80BB1D0A1C1A80A6
S1131A100E23FB181B88042B00D9DCE09A00704BC2
S1131A20D3181B689F466F4B1B68C22292039818F9
S1131A300C23FB181B881F221340A022D20413433B
S1131A401900694B9847674B1B6804211800674BC2
S1131A5098470200634B1A60624B1B68C2229203D0
S1131A609818BB689B881A00BB681B8953435B02A8
S1131A705F4A1A40BB68DB88DB05DB0D1343E022B9
S1131A80D20413431900584B9847564B1B68042142
S1131A901800564B98470200524B1A609BE0514B7A
S1131AA01B68C22292039C18B9687A6A13009B00CF
S1131AB09B189B00CB180C331B885B024D4A1340C8
S1131AC01900B8687A6A13009B009B189B00C3181E
S1131AD00E331B88DB05DB0D0B43802212051343F9
S1131AE019002000404B98473E4B1B680421180006
S1131AF03E4B984702003B4B1A606CE0394B1B6825
S1131B00C2229203944663443B4A11001800364BA8
S1131B109847344B1B6804211800344B9847020043
S1131B20304B1A602F4B1B68C22292039C18BB686F
S1131B301968B8687A6A13009B009B189B00C31845
S1131B4014331B68CB189B029B0A80225204134354
S1131B5019002000244B9847224B1B6804211800CD
S1131B60224B984702001F4B1A6034E01D4B1B6840
S1131B70C22292039818BB1D1B88DB031F4A1A401C
S1131B802023FB181B885B045B0C13438022D205C3
S1131B9013431900144B9847124B1B680421180077
S1131BA0124B984702000F4B1A6014E00D4B1B6850
S1131BB0C22292039A1884239B05190010000A4B31
S1131BC09847084B1B6804211800084B98470200EB
S1131BD0044B1A60C04600231800BD4605B090BDF2
S1131BE0C48500008804002095020000DD03000085
S1131BF000FE070000FE03000100001F0080FF3FFD
S1131C0080B584B000AF78600E23FB1800221A80E0
S1131C107B681B69002B5AD1674B984702000E233F
S1131C20FB181A80644B984702000E23FB181A8095
S1131C30614B984702000E23FB181A800E23FB18F1
S1131C401B8803221340012B0FD002DC002B05D08C
S1131C5022E0022B11D0032B17D01DE07B68002259
S1131C609A817B680122DA8116E07B680122524264
S1131C709A817B680022DA810EE07B6800229A81D7
S1131C807B6801225242DA8106E07B6801229A8154
S1131C907B680022DA81C046474B984702000E2336
S1131CA0FB181A800E23FB181B883F221A407B68FE
S1131CB01A61414B984702000E23FB181A800E2329
S1131CC0FB181B88072213405A1C7B685A617B68E7
S1131CD01B695A1E7B681A617B6800229B5E9AB25C
S1131CE07B680C215B5E99B27B685B699BB24B435A
S1131CF09BB2D3189BB21AB27B681A807B6802220B
S1131D009B5E9AB27B680E215B5E99B27B685B69CD
S1131D109BB24B439BB2D3189BB21AB27B685A80D6
S1131D207B6800229A5E80239B009A4203DD7B68D5
S1131D30102252421A807B6802229A5E98235B002A
S1131D409A4203DD7B68102252425A807B6800224B
S1131D509B5E203303DA7B68F82252001A807B688A
S1131D6002229B5E203303DA7B68902252005A8061
S1131D707B680C229B5E002B02DD7B6803229A6049
S1131D807B680C229B5E002B02DA7B6801229A603E
S1131D907B680E229B5E002B02DD7B6800229A602A
S1131DA07B680E229B5E002B02DA7B6802229A601B
S1131DB0C046BD4604B080BDD1270000B0B5FD4C7F
S1131DC0A54402AF0023BA229200BA18136000237C
S1131DD0B9229200BA181360F74B9847F74B98470B
S1131DE0F74B9847F74B984710210220F64B98473A
S1131DF020210220F44B9847F44B1800F44B9847E9
S1131E00F44B1800F24B9847F34B1800F04B9847EB
S1131E10F24B1800EE4B984780239A02C023990393
S1131E20EF480023EF4CA047ED4B1800EE4B9847CA
S1131E30EE4B1800EE4B9847EC4B1800EC4B9847D0
S1131E40EA4B1800EA4B9847E84B1800E84B9847D0
S1131E50002200214820E74B98470022002100205F
S1131E60E44B9847E14B1800E14B9847DF4B1800CF
S1131E70DF4B9847DD4B1800DD4B9847DB4B1800D0
S1131E80DB4B9847D94B1800D94B9847D74B1800D0
S1131E90D74B9847D54B1800D54B9847D34B1800D0
S1131EA0D34B9847D44B01211800D44B9847D44BBB
S1131EB000211800D34B9847D34B00211800D14B75
S1131EC09847CD4B00211800CC4B9847F0235B007A
S1131ED0CE4A19001000CB4B984789239B00CC4A6B
S1131EE019001000C74B9847CA4B2B211800C54B4B
S1131EF09847C94B00211800C24B9847C74B29216A
S1131F001800C04B984788235B00C54A190010008D
S1131F10BC4B984792235B00C24A19001000B94B8E
S1131F209847C14B0C211800B64B9847BF4B002172
S1131F301800B44B9847BE4B0A211800B14B984780
S1131F40BC4B00211800AD4B9847BB4B0121180036
S1131F50AA4B984780239A04C0239B0311001800BE
S1131F60B64B9847B64AB74B11001800B34B984785
S1131F70B54B00211800B14B9847B44B022118000F
S1131F809E4B9847B24B802118009C4B9847B14B0D
S1131F9080211800994B9847AF4B80211800974B2C
S1131FA09847AE4B07211800944B9847AA4B402101
S1131FB01800924B9847924B1800A94B984703007E
S1131FC0BA229200BA1813608F4B1800A44B98479A
S1131FD00300B9229200BA181360B9239B00FB18BE
S1131FE01A68BA239B00FB181B689A42E3D19D4BE5
S1131FF0B9229200BA1812681A609B4BFB1800228F
S11320001A809A4A9A4B002118009A4B98478023C9
S1132010590080235A005423F818022300930B001C
S11320200021954CA047954A5423FB181100180031
S1132030934B98470200934BBC2189008C46BC44C7
S113204063441A60904A5423FB18110018008C4B07
S1132050984702008B4BBC2189008C46BC446344E6
S11320605A608A4A5423FB1811001800844B98477D
S11320700200844BBC2189008C46BC4463449A60B2
S1132080834A5423FB18110018007D4B9847020023
S11320907C4BBC2189008C46BC446344DA607D4A95
S11320A05423FB1811001800754B98470200754B18
S11320B0BC2189008C46BC4463441A61764A54238B
S11320C0FB18110018006E4B984702006D4BBC21A1
S11320D089008C46BC4463445A61704A5423FB18FB
S11320E011001800664B98470200664BBC2189001A
S11320F08C46BC4463449A61694A5423FB1811001A
S113210018005F4B984702005E4BBC2189008C4647
S1132110BC446344DA61634A5423FB181100180079
S1132120574B98470200574BBC2189008C46BC444E
S113213063441A625C4A5423FB1811001800504B84
S1132140984702004F4BBC2189008C46BC44634431
S11321505A62564A5423FB1811001800484B9847FA
S11321600200484BBC2189008C46BC4463449A62FB
S11321704F4A5423FB1811001800414B98470200A2
S1132180404BBC2189008C46BC446344DA62494A12
S11321905423FB1811001800394B98470200394B9F
S11321A0BC2189008C46BC4463441A63424A5423CC
S11321B0FB1883E008FDFFFF81100000F911000007
S11321C01D1700003109000045160000D000002052
S11321D0050A0000D4000020D8000020DC00002004
S11321E000100042B90B0000990B0000A08601000A
S11321F0D51600005501000020203000B501000074
S1132200F82030001D020000FC2030003420300093
S11322102C20300030203000382030003C203000AA
S11322204820300040203000442030004C20300052
S113223050203000642030006C20300095020000F3
S1132240070000260400300008003000542030004D
S11322509020300094203000D420300070203000D2
S11322605503000088040020E2020000A05B000087
S1132270A8290000C106000085170000448500005D
S11322805518000014FDFFFF548500004C85000024
S11322905C85000064850000748500006C85000086
S11322A07C85000084850000948500008C850000F6
S11322B09C850000A4850000B4850000110018006E
S11322C08D4B984702008D4BBC2189008C46BC4441
S11322D063445A638A4A5423FB1811001800864B3E
S11322E098470200854BBC2189008C46BC4463445A
S11322F09A63844A5423FB18110018007E4B9847B4
S113230002007E4BBC2189008C46BC446344DA63E2
S11323100023BB229200BA1813607FE07A49BB23E2
S11323209B00FB181A6813005B009B18DB00F0226B
S11323305A527549BB239B00FB181A6813005B00B3
S11323409B18DB00CB18023387221A806F4B984707
S113235002006F4BFB181A806D4BFB181B8803227D
S1132360134099006848BB239B00FB181A681300AC
S11323705B009B18DB00C318043319606249BB235C
S11323809B00FB181A6813005B009B18DB00CB183A
S1132390083303221A605C49BB239B00FB181A68AC
S11323A013005B009B18DB00CB180C3300221A804F
S11323B05549BB239B00FB181A6813005B009B184C
S11323C0DB00CB180E3300221A804F49BB239B003D
S11323D0FB181A6813005B009B18DB00CB18103342
S11323E010221A60494B98470200494BFB181A8087
S11323F04549BB239B00FB181A6813005B009B181C
S1132400DB00CB18143301221A60BB239B00FB189A
S11324101B680133BB229200BA181360BB239B00D4
S1132420FB181B68312B00DC78E73A4B1B68C2228F
S1132430920394466344384A11001800374B984776
S1132440344B1B6804211800354B98470200314B6C
S11324501A60304B1B68C22292039A1880239B0493
S1132460190010002D4B98472A4B1B6804211800B3
S11324702B4B98470200274B1A60264B1B68C2223D
S1132480920394466344274A11001800234B98474B
S1132490204B1B6804211800214B984702001D4B58
S11324A01A601C4B1B68C22292039A189C239B053A
S11324B019001000194B9847164B1B68042118008B
S11324C0174B98470200134B1A605423FB1818004B
S11324D0154B98475423FA180023019300230093C3
S11324E0002307210020114CA0470023BB229200A7
S11324F0BA181360CBE0C0465518000014FDFFFF66
S1132500AC850000BC85000094040020D1270000A5
S1132510E20200008804002000FFFFFF9502000093
S1132520DD0300000700002619190000ED19000062
S1132530BB239B00FB181A6813005B009B18DB008D
S1132540854A9B181800854B98478349BB239B00F9
S1132550FB181A6813005B009B18DB00CB180433CC
S113256019687D48BB239B00FB181A6813005B00A5
S11325709B18DB00C31808331B68CA18784BBC21AE
S113258089008C46BC4463449200D3585422BA1840
S1132590019300230093002307210120714CA047DD
S11325A06D49BB239B00FB181A6813005B009B1842
S11325B0DB00CB18043319686748BB239B00FB1866
S11325C01A6813005B009B18DB00C31808331B68F0
S11325D0CA18634BBC2189008C46BC4463449200F6
S11325E0D3585422BA1801930023009300230721DF
S11325F002205C4CA0475849BB239B00FB181A6877
S113260013005B009B18DB005B5E9DB25249BB2349
S11326109B00FB181A6813005B009B18DB00CB18A7
S1132620023300229B5E99B24B48BB239B00FB18EC
S11326301A6813005B009B18DB00C3180433186886
S1132640454CBB239B00FB181A6813005B009B18C6
S1132650DB00E31808331B68C218414BBC20800020
S11326608446BC4463449200D3585422BA1801935C
S113267000912B00072103203A4CA047BB239B0069
S1132680FB181B680133BB229200BA181360BB23EA
S11326909B00FB181B68312B00DC49E75423FA1814
S11326A000230193002300930023072104202D4CD1
S11326B0A0472D4B1B68C222920394466344002119
S11326C018002A4B9847284B1B6804211800284BF4
S11326D098470200244B1A60234B1B68C2229203C2
S11326E09A18FF235B4219001000204B98471E4B99
S11326F01B68042118001E4B984702001A4B1A60ED
S1132700194B1B689BB21B4A190010001A4B9847BF
S11327101A4B18001A4B98470300BA229200BA18B1
S11327201360144B1800164B98470300B92292000B
S1132730BA181360B9239B00FB181A68BA239B00CC
S1132740FB181B689A42E3D1074BB9229200BA18CE
S113275012681A6069E6C04694040020011C000057
S113276014FDFFFFED19000088040020950200000D
S1132770DD030000FC2030001D020000F8203000C2
S1132780550300000E4B70B500251E000D4CE41AD5
S1132790A410A54204D0AB00F35898470135F8E7DC
S11327A005F01CFF084B00251E00084CE41AA41079
S11327B0A54204D0AB00F35898470135F8E770BD43
S11327C0E8850000E8850000E8850000EC8500004D
S11327D0154B10B51C68A36B002B15D1182000F005
S11327E033F8124BA0630380114B01224380114B39
S11327F08380114BC380114B03810523438106332E
S11328008381002302614361A46B0D4A20696169DD
S11328100C4B00F08BF801220023801859412061F1
S113282061614800400810BD440400200E330000DC
S1132830CDABFFFF341200006DE6FFFFECDEFFFFBF
S11328402D7F954C2DF4515810B5034B0100186899
S113285000F004F810BDC04644040020032370B502
S1132860CD1C9D43083506000C2D01D20C2505E036
S1132870002D03DA0C230020336040E0A942F9D88C
S11328801F4B1C681A002100002913D00B685B1B26
S11328900DD40B2B02D90B60CC181EE08C4202D154
S11328A0636813601AE04B6863600C0016E00C0068
S11328B04968E9E7134C2368002B03D1300000F08A
S11328C023F820602900300000F01EF8431CD1D00A
S11328D00323C41C9C43A0420AD125602000072284
S11328E00B30231D9043C31A09D05A42E25006E02C
S11328F0211A300000F008F8431CEED1BAE770BD8D
S1132900900400208C040020002370B5064C0500C0
S113291008002360FEF736FE431C03D12368002B16
S113292000D02B6070BDC04644090020F0B54F466E
S11329304646C0B41604360C9946330005042C0CE4
S1132940070C150C63437E436F4365431C0CAD19A0
S113295064199C46A64203D980235B0298464744E7
S11329606346250CEF191D044B464A4343432D0C83
S1132970240464199918C91920000CBC904699467E
S1132980F0BDC046D80F0000281000002810000039
S113299024100000CA0F0000EA0F0000BA0F000064
S11329A0FC0F00000E100000789CEDBD4D6C1B590F
S11329B0B62698E84D0410012800131017AFA6D3CB
S11329C0B37E0594FBADC7C07BBD9D02BAA6D76399
S11329D0A057269002DAE81460AE2613B961000A03
S11329E0C002C404B9702819CCAD994FA1DC3EB91A
S11329F04C79FB2424E9855729DBF44204C4B194BF
S1132A00A281D4A61873BE73EE25A9CC2AC7B974C3
S1132A10CDABFED10D48A2649F7B4FDCEFDCFFFB06
S1132A209DF3C92737E926DDA49BF4D74E934E982E
S1132A304D3A4116D2F3B7D6E526B927E016A69348
S1132A400E6198BACB568745D11EB54EDA2745D1CB
S1132A50EC37FB93CE4AE5D313FC8DECC7CFE5F1FD
S1132A60E8EB7F441BF6FFC0CF1DF9E9261B66EB9C
S1132A70845F7DD4A687F13B7079FF4947D007EE88
S1132A80CD3E72A80E9BFD5572A84BF90724ED6844
S1132A908306BD9EBF127A930E70DF19EE0C935E0F
S1132AA073B873BCC5B9B9D9B037B71E6F050DFC7F
S1132AB0013F39BE8F7F709305F6A7FF6939077A06
S1132AC0FEE0FD5E2B7DD6A91E5FC76F7DE8D28236
S1132AD09B7DD80EAC4672602C4F360FB4188AF525
S1132AE0FDC27E1C2C30CC50F3CD617398E49BFC6A
S1132AF01DBF6BA545DECB2197F4E4AB39ACBE4DCD
S1132B00D892B43978ACC1CE71227AF45C34005EC8
S1132B10F11B7F46CFC09F8DFF547B4336F0AF7AC5
S1132B20FDBD3F700E3F2287F1BF7AF49D72631B97
S1132B30D0C903BFD689A0B7495F5703A0B1A96C18
S1132B40834126ADB63D5A1FEE907C75D8A2DFF0C6
S1132B50BBB6F6507E7BB473B073403A1CEC98F26B
S1132B6077941668D127E4E8D9C80D7A3D37FBA9D4
S1132B70BE450E5B9C07BEBB8C0381D140A413AB46
S1132B8041AEAB3F468A306BBC89F969BC19FF89F9
S1132B902D61A0D5DFE6507B63F330B6A4CA21CC07
S1132BA0DA4BF8A1F5B69DF0837CFD043D488B72A9
S1132BB020E993EA506C60B37FD6D197DF1A55872A
S1132BC09F930D568F5DCBF7F3ABD18EC1FF33FED0
S1132BD00E3CC77B7A799FDABCDF03665B79F3D856
S1132BE03728EA5B3F34D8640D367A1B2CEB910608
S1132BF09E2A07601715DEA5378B7F8C0D7E514109
S1132C00F81DE94AA7117F30FE5354C482FE8F8C0D
S1132C10FE65549CFEC91BF87734DAA3FE65FCAD4F
S1132C200EAF061645CC030285FE61D63CA0DEFF3E
S1132C300039A0DFBF3A7A945787E8D1ABC79AF737
S1132C400FA9FF6871F9F5112C47B490F2CBED0789
S1132C503D2F5ABDDFBB1A71CD139268CB68BB7E82
S1132C60AED3DFCCFB7AE8B59BC3F5B7C07FBC8796
S1132C70EF9A9930C9F78CCDBD42E9E805A001EC83
S1132C80CF2FED03FCBCF166ADA03EFBD2BF1CFF11
S1132C9049B0F3DFC122E2379E6A04F173D80BF521
S1132CA01994037A91E51C346310E1D7C7D86BF00B
S1132CB0A3DADFCE810346611D7E3B7D9A2F1C3C47
S1132CC0E809760F7A90DFCE91A74EFE97E55BFB7D
S1132CD0591F96E387DA17FCB6A8FD0AF2E87F3F8E
S1132CE0E3DE5B338260EE278F608E9F1EE526B3A2
S1132CF082F23790FE035A0077D1E0331E8F483AB0
S1132D002D7B032AED27E9AFE9FBE5B9A0C6BF791E
S1132D1097BA1904957ED97823A37E5450CF71793C
S1132D209F47109A45BC3BDDD3BC3FDA6EB3BF9DD1
S1132D30AF03BFE307393EE9F19B74B67392EE3DEE
S1132D40CA1FB19C7D74D623F89BF28FC5FA20FB71
S1132D5000E52BE68001A334DE1BEFD19CBDB791C7
S1132D600B0E3EF709BAF1172B4E1EED7B5E8FC793
S1132D7081A5B15F3303143B610B44B96C8D1BB95E
S1132D80AF1C41805EFC062D5F70A751803FA127D8
S1132D90D7E13FDE6B580919F767F6775F69410F92
S1132DA008BF470633831EDAF0B176FE0EFCC36C0F
S1132DB03B7F6024E5D18D1EA8BF473DD80FA4AF4B
S1132DC08E44F601D99276F40046DEBCE6A5DF4FC8
S1132DD072FB59A781B4FDC50AD2EF612F24A02F3D
S1132DE01DFE32862C4A1DEF25BDD33DE45A268FA5
S1132DF0DEDB1F00B1DA7CE64663F88FF80DABB971
S1132E00B2D2A98C1F64D4B7FDC67D338BE435855B
S1132E100A7FB4C03043FD3F98A3B7DDD3AFE003CE
S1132E20C23ECCFEAB910C33FBA59386FD6CC27EF7
S1132E307ADB3D9BC7835C6C4A57FA62E7C6339FD3
S1132E40B00F49F5AF5C03484BA771A017A676FFF6
S1132E5000BB99F8178DFC6204593C412636518E0B
S1132E60BFACFEA8071FB005FCE8CDBC2342EE486A
S1132E70897F8F577E94C3E90FD27760F5C8B3C0BA
S1132E8023FF685CDAFF57B24A66119336486852EA
S1132E903D3C50B79D4AF6BE33E94C1E730EF90310
S1132EA0833DF2D5B57FBBF3273DD023234F39A40F
S1132EB01565FF2DE8A1AD611C08B083984E1EBBBB
S1132EC0EC238A06D2729197EC85AAA553633F340A
S1132ED0E2403E80F5A4A16A27DCEF8D7F401B26EB
S1132EE0AC8FE6AB3742D31B8C7FA0BFF6CAE44F4E
S1132EF0F7BCC1E90F9018FF50FB517A1158942781
S1132F003B4125F653C9AEFA0FF38AD97995BE3BF6
S1132F104819BFB4A2EA7DAB87EB874DB200934357
S1132F202E3BB895AC99559F560F3508B005A64071
S1132F304DDA3EE613B09F76AF7AA8D141EA3FC896
S1132F4064BECDAD17BBD88F3592CB6F8236CF1808
S1132F509A5D6857698C42D0E0744FC60D9DF59117
S1132F60C6479EE09F738F3D600B007647E5E823DC
S1132F70513FC7FB7EC09EC6821F0DF224ED95E231
S1132F801F649BF43419815FE09736156F1064EB6E
S1132F9087ED7C33130B32ED066D97F26CE71AFC68
S1132FA0432AFF7396479BD9CE17F2D04B5B87D247
S1132FB05E0501D14423F7AB1CB2367D9D75DA99C9
S1132FC0B468971C6C7B9FF71E6A799979002B8CE7
S1132FD0E4662F90DBAE2E07CC5CD18718D91FCDC9
S1132FE01E306634A5F61398DAA61A7B1C2C6128C9
S1132FF0ADB7595A8F930E5AEFFBC7B48660BCF134
S1133000B4F36626FD7FA5143F2EE9B0FAB4C9A730
S11330103E4166ED67D299F288A2DA3FE9455F55F1
S1133020BFB7E8D9EFE5728B34DEAB7EDFCAC2B737
S1133030C974BBC0934CC3B7EDACFABD8B05A0CD2E
S11330404BC92DD6BFFA7DF49576F6C56B5860C88A
S1133050C89FC20A9C4E10640503FCC77B66E797B1
S1133060D79EAAB96B1FE3D526A177D5AF1E5EF50F
S1133070DBF90EF04FEFBDBCF7F24A310313BCCEBF
S11330803AF6E46ED10794AF7D65FCB8FBE2EE4BF3
S1133090580C74585FB220B262C50EB49F475F5D8E
S11330A0ED475F59F404BBC8A1F52659FB39A19536
S11330B089F5AE9BAF28AD7EDFFE63A2C480B40069
S11330C0FA4B3AC026A3AF34EB6F8C183CEF18E0F0
S11330D06BB182D0EA3FFE9D7FC7AE40A4E5A32F2B
S11330E031BF97ECFFF1DAB56F7BCFC509ECE47122
S11330F085FAFFA6620EC42831F295ECD6BCD5E35E
S1133100193F2BEF7FD0FE31FA2C59CDFCF10F7C07
S1133110C5FE5B92455FB5BB163DB21D9A355C3C5E
S1133120AE7E5FFD5E87DD16A1FFF079BB1B72FFEB
S1133130D5CE5B39FD7CDAA69543ABDB7EDE7AAE79
S1133140C9E5B36CFD7B58D0FA619D5B119E2823C1
S1133150ADBE4ACAEBAF276B167B6A25BB575E0F21
S1133160D6A0D15FD047FF8FF387450EB292A5BC9E
S11331707FFB6179E9730342FF3DFAF2748EDE9EB0
S11331806AF69A07993F1FB3E5B9B5C821D558C067
S113319062D4E6B1A45399DF22D19D1E6CB0F53000
S11331A07A3DC1B09E5DEDB79E53ED2BB08B2EA939
S11331B0F5FF33F51FD467C873D1C177FA9D5A70F0
S11331C0FB79745996035B20F5206DEE4349871E05
S11331D07438A3F12B29ADC1E5156393F73F8B0236
S11331E0E70FFE60EB0D46F0B2B2FD3BC517BCE342
S11331F04533BFF1DE3C87A1DDCBF0147D809D3FDC
S1133200BFEFE0B17D37F64035F80B6E3B64418289
S1133210DA99993F881D69F037BB2DFCB00DAE30AB
S1133220FF0E528B1DA1400F10D1E04FFD764116C9
S1133230D0157B6DD3D85D6779D941A0167C19155B
S11332406523C9462AA5B5532E599E5437039D7448
S113325012D3E3D3382CE7F6B4EEA3CF475BB49E86
S113326057ACFEEF6CFC9EE6FF4709FE771F330860
S11332705E490C30AA734F30A036588AFFE431CD32
S1133280B6D1F253E987E3818C069ADD27D41F6611
S11332908B1548F1F81F1F5532AC09B9EE4AF1B746
S11332A0BB2DF1E0CCACBA614DDA99BF4D4DCC7F6A
S11332B006825D63E0F7B632DD08E0E5CD222A42FE
S11332C09E7D40077FE417FE086FD2642BBC98ED07
S11332D094E29F70595BAC01CAAF534DF8984529ED
S11332E04FCFEDEE91D7E755FBD1F85FD0F2718B5C
S11332F0A0BCFD8F7FD7FC82CA1AA2C57B3D930375
S1133300A33FDE3BE51EBCF9C5F8771FCE03ADAE87
S11333107A88355C3C90BDB3C691E0AA597F8E9FF4
S113332050CFC5ED3D1E24199E7850E1515DB77E06
S1133330A192DEA18DC503A98778708BD704E56BB4
S113334087A5374823B6A1D3377EE18DF089ACEF4A
S11333505D79CB45925DA224DD9CF7FF78D6488742
S11333602493D149F106DC06782463FBC1A748AD58
S1133370FF7CE68675DC9E9C43494FAEDAFFBE1D9A
S113338064B6CF071676FFDA6324C3DF84B735E566
S1133390CB1E807F02FCC2341E3479475DA77F6355
S11333A050496F65631AAF121A8B13BCCDA8C2F6CD
S11333B0A09387C6CDB4416D0EA58FDFF0DE43AA7E
S11333C03DBD47DAA0FF4F3D7F0FEB97568EDE974A
S11333D0F02F9A2AFC25516FFFAACDE3C71AE38F79
S11333E0B9BCB67CBFD72CD68AA6C8E5570718FD4A
S11333F0E9539A28D65F923CD3FB276FA805D36A7A
S11334000056A0D79FAC05A77E8C3E72A2B9C0BF60
S11334104A1FA02B3DE0164BBD6621E715DCF37374
S11334201FA893A7FF7D025991367D59E19FA87784
S11334307F53F4BBD87B93DD77BF888FDED328E23C
S1133440B47B4B6BBEE43C9926D37A6ED173BB41FB
S113345018F2EA8D1ECE257CEB32FFE03A230DC82C
S11334600673C9033310C7FB6B83E4471AC59F9DDA
S1133470EE2D4EA1B4F272FA6C4EA10F923709EF01
S11334800438955FF845748847EE2CC8E9875E9E3A
S1133490E4527C0FF029E3DF1DE465DF00E58A0ECA
S11334A0D0C66DFCA71CDEEE1C360F9B4F51FFC12E
S11334B0DB556E1FEF3C2579D29BF371D25FE42775
S11334C0A3E4FCB3F3264B97CFFCAF277B7628ED20
S11334D047776FE897E59B9D83D49E44BA48DBF514
S11334E0F7D96320E97EFF7BD2690FDB43D90790CC
S11334F04FAE394016F6B3DAFE2DEF2450BD7F7E71
S1133500283FDDCBC71BD48FA179FB587EAE52FE7A
S1133510AAD6F3C92771BF3DADBE8DFBE60CC3FD32
S1133520067E2A237EDCBF1AB5A7713FFE47477982
S11335307A6F20B7DAED7B69B768F5F6937B1E18CE
S113354001A001D5BDF3DB9306DD491EEE6F1EAE6F
S1133550663D24BF0BCB6D3E058E403FEABAE620A4
S1133560AB97A81BEC87FBEED2347A0FBC23BB9736
S1133570E22A8D95A0ACD9EC69D0F8EFDDE4DB4309
S1133580C16D95B6CB7788D8EAB193B4B392FDB345
S1133590051A1DEA4377E984DB5FD45DC57644FEF2
S11335A0229BF4C88A3A6BBBC0AF7CE7EECF25AA56
S11335B0817DD663D755D23F92DDDB557927FE1D39
S11335C0EF0FFE1FA8F718F05C4075F37339D99D0F
S11335D0DF55CB5F58ED6AF68B24273EE807562B60
S11335E07FF592B9F731E74D1F9793ECA5AD32FE05
S11335F0F07DA395F50F6F87B7277F47DFCD383E62
S1133600F974D59C6ED24DBA4937E926DDA49B7472
S113361093F469E9F47EC559F8DF3299DB4F69A068
S11336203CB9F8EF2DF977C6BF03F3DBFBBD2BFBE9
S11336305B92BDB3B3DADC573C0008871C6C0EED1B
S1133640EDFF6B79A4416A6F81B96B207368B9810E
S1133650E48A9F9C559F3E490C7B50CF1DB89E87A2
S1133660ACA156B51E737F67E0C2FD9424B740BC7D
S11336701CE7BFA73F7847AE1E00C2748EDE89A048
S1133680E7F6F66010CC19DC07E081D547EBC3CD33
S1133690BE3E874907AC5FF007C1416AF6779C35A7
S11336A0B01C0C615F6A6E4F2C649719C438859BFB
S11336B03C164E8F43E929330897ECC7457B3905FF
S11336C0F38F6AF6FEA71BFFF70EDFF318C8DD3F82
S11336D030003D07F637EA7EE760C1BF07F7126D99
S11336E0D8053D30F8AACC1E96C7D5034498CE7DA4
S11336F0081806B258815A9E6F9134871BF3FA0F4B
S1133700D52798F23FAB6FB772CBDEDCEAD97D38B0
S1133710357FA8B7B01F8FEFB3B85900581CE06DC0
S11337205AFE86F0B975168096EF0F3C966EBC89EA
S11337307F64DE80F0BFD5FCFFF6E86AD05C468F7C
S1133740EA5E7F0A1064EBC316B3BEABC7C21C3576
S113375079A87D386CF6A5DF81F7811D67FB91FAA6
S1133760077B3B310C60F1DDA03BC532A78EE0EC5A
S1133770BF82F7089CA4F3ED8B27BA7DA820BD5621
S11337803A6B80D2F5BB39DCEBCFBCCBB5020C5E17
S11337906AC5EF0C0FE4D25358804883F10DE9DA7F
S11337A08F608332FFE752C720C7C88DD6BB4EE86F
S11337B05D1DFD7C64D01B360FB42338F8BA6DF65A
S11337C01D232C7030F7C58B882E07787F6933F75B
S11337D05B9EB9064A0B303768A8FD5F8D04BF0DA8
S11337E07A708AAEB8BF9C5EE76D316B3F85FF0887
S11337F030F8B40C44633F6FE5D64ED24B9C661050
S1133800BC670FC6AFA0F80E1CE0D33FF933B20774
S113381005827CF37B6659FF223D166955FFB19DF5
S1133820538F0FF44E9A7DF1021464E283458BFFAB
S113383076BE833EFB04ED5DC611E6F41E6F2AF1ED
S11338409BDBCF89F81EA91BFBD13188C5778FB4C8
S113385041AF277E1FE08FA179AC666FCFEF2E605A
S1133860DC373720E8A786BF1B98135BB0FFC77B04
S113387057239CDD79730F049AB747EFCF08C27FB3
S1133880CBC0BB443FEE0FC0E43EFDD3C5AC5C16D9
S1133890BDBD617F0EA8C7B8A41E80A4D70AF88452
S11338A0D0940EA625EA1F337646EF00E8AD3BF52B
S11338B0BF8F728C1BE0EE09FA5181115D7B8B1373
S11338C05CD3650D60379B7DCC1F5DDA1FE66DE12F
S11338D0FC3672F31816513E07E4D11F73AF1EF580
S11338E0E3B9DC834F06F64E7279E9F3DB7BCCF95E
S11338F0B43759ED0D5CCDDB730F3E438B07EB0FF3
S11339007DBF3078BCD9F8FFF5CBF19FB7FEFB6FD4
S1133910C812D876309B608F12A5D248610AFE3552
S1133920F8F761DA1E7DCEE805D9E6817E151664C6
S11339300F7A18BB517798B79FCF0A73AB52270FF2
S1133940C6DFE6016B9009FAD67EB4F8E3B6F2E27C
S11339501E31DF7A357721CA7597562FF73061B15A
S11339601B47B362A7D0AE42C11AF6E77EC720B5A3
S1133970716479884AFF0D3DE9FDB90718702B96EB
S11339801C07E53340AC1920CB333E580D66FEC20C
S1133990825648DB1A400FB0D9C70998B45DA037E6
S11339A079AC3F85434D610C5863CCA3A252F8BD5A
S11339B06AE1222F16C82D87BEAF152EF6633D008F
S11339C0D8B69F0CA2CB59A13D49B7BDBD9F47971F
S11339D0414AB2EF9A647B33B5F6671DC3FC353DAB
S11339E0C6C6E0E2A75961EFD1697258E27DFEC80C
S11339F0AD394F06B3E233EE0334B2C05958C37E37
S1133A00AF66A493238DB424E8090F10D102BDBC82
S1133A10EA7EFF8A659107E7D0AF16897AFDCAF678
S1133A20D3331AA4903F7D522D5CD8E3320A5FFC55
S1133A3034792C084E3A7A04EDDE018D9997B875E5
S1133A40392B2AD94CADBDEC9AE1E65D7419665B5D
S1133A50647B643F24AFAFBF05FEC2FEDA1AD0CC4C
S1133A602D9F296F7F5AFF117C7F004C9041E420E9
S1133A70BDF40E8C5E60D05B270BD2CB2305A60E63
S1133A80A3E216E5C07E680EDC35589BDBCFD54C2F
S1133A906F3F0B04A3151064F954FA803592C6E302
S1133AA0A87D8A91E662B6767931B3A56FE8776F1F
S1133AB078D7CEECFCE5C951443978D4836DA9722A
S1133AC0F072EF48760CD1FF007DC2FE9DDBDBDB9C
S1133AD0FA5B2B2E6615AAFD0BAC1D1CDE5F92DC77
S1133AE0218C380FAA3F87DD23D100A3F05A01F4BB
S1133AF04507B71C8CBF8D5E3447D07392C7DE3147
S1133B00ADDCA8F78E56D25E661CC0BF596C3AE68F
S1133B101066E37F95BDDFF11EF4DF71D29F469EF0
S1133B20396B7421BDC21B641879236EBD6E752771
S1133B305E40EA39EEDF5732B7BBCB467ECE3EBDA0
S1133B40988906AEFA5B1BDEA0FE7F8DFA115779C9
S1133B506A79C3CFA6B8458FF5806BD97276C1BD9B
S1133B60EF25DEC0BDF699BF934B0EAE16287D1728
S1133B70DACF16BFFD6AB527BCD549C765DF7B21FF
S1133B80BD99D6F3363D958CEF5139DEBDAFB01FEC
S1133B9011707EE0B5406CD96D0602D4A2AF92A933
S1133BA0975B6F5C2ED27E4FB87BC9100CEE55CE5E
S1133BB06F603F9016068FAB34DEB6DD6D773787C6
S1133BC05ECF5DFBC9A7228DBD2B776929BF92B556
S1133BD00D8F6BEA74F75F12185F0FF37A8FF1EFB2
S1133BE03499C9EB222DCC5DF0C7710208FE01F4B3
S1133BF07199433157F72B58C0A3021C0AADF7053E
S1133C00494906BE70447D18F843DB85FEECC8962E
S1133C10DF4AC15E6AB3053D52EDBB2C92F03FFC16
S1133C207EBDDB3CC61918BC083ACDDF6E9B5DCC6B
S1133C3041F555F55541AB2FCFF9F6E782BB2D562B
S1133C40E0821F56419539F7BF92569F621CD04BB4
S1133C504F3BC222163F24F03C804FEFD5F740691A
S1133C60B5F03DFB70F80A0CAC7A8E360C5BD0EFE5
S1133C70BFC0D7C3FAF76D6670B5F3287DE088201E
S1133C80E19F81EDDF62F976A6F51B21897ABD1FDC
S1133C904E716AD36F7581BE3F68EFBA58007C5F7E
S1133CA081418C939FB6E4E0E6BB46EA3E959514C9
S1133CB0D897849FE30D0E7812F1F278E09FC07ECE
S1133CC09AA93F72904D99AB98E2810D621CAAA803
S1133CD0D8FF92A8F6FF68DA6FB696B5A80D6F17ED
S1133CE0CD43F4C53A793078D7E1AFA5D762EE6712
S1133CF03D4DA67AED4503E180D7B927A371C4A150
S1133D00F678B7B0CF4FCF3F20EC8E0C83BBA7F330
S1133D10FFCAF6F364CE21EF575FE1BB8BF6405D3B
S1133D2056D0F0FCB44963B97F123BAFFF04437033
S1133D30F9C6B3F1CC650C61DE5A3FCC6A830A7BC9
S1133D407E020B1B5C64A5740EFEF5CFFB49E6E511
S1133D50E0E0AF511B7C506C1E26E76A0F3CA9F4CF
S1133D60165C07036F14BF693A5ABF978B0F087824
S1133D70018952703FF5B2C07FC96743DFF2F79BF8
S1133D80C34D250FC2CE99FC3E7262FF018EBEABBD
S1133D902ABC730939B0FFFD13D7FB5BBC639B617D
S1133DA014B0F777F41A0419D67A22357E03EC039B
S1133DB0B312D0D93FEF5C5C26995D83D16A681455
S1133DC0FF080673A4F47F2A39308F9DFBC064BAC0
S1133DD0E91A7DA287D11F3B48D47AC97E5C180CAE
S1133DE0614A2B864B8CDA76E65A7D4B28EE5DFCD5
S1133DF0A4D33EC864CE297694D01A72E7B8E9C039
S1133E00A039A3D1E3168FB81EEF7FB8A167DE21D6
S1133E10C3AA5778FF60F28307A4978D4CA9CBDE21
S1133E20A3F4B358EC1836A9F6269D1D2E9FDA5F2D
S1133E309E9C37610BCA759C68900CC577489DF0B1
S1133E406FBADE7EC288D78BA80EDAD96753589032
S1133E508374DA645F0B730FB403AF67B8DC4AEBA7
S1133E60B5F7C6A8CDFCD42C5C6F1F0177E3B16114
S1133E7054C96417D8958183932FF0F6AB4F31F270
S1133E80CB6AD44503E01E0FA0077C10B12711A70D
S1133E901E14BE769A3C72453C02B71CA23F480EE3
S1133EA0DCEE875BC3AD29668F3B8EB3DF8DA1F556
S1133EB078D14EB78B49277162B0E1FC608E3EE643
S1133EC00147E59E1B9775E7F19364C64FC407A2AB
S1133ED023FEECEF01B33ED4FB6AFCE370E1F5A3EF
S1133EE070657F8BBCB4791EFFD3F10C2C6447F949
S1133EF0F433ACBD86F0C300045DCF2F369F369FEC
S1133F000AEFBDA9F6DBB05C7E728CB2DBD9032A62
S1133F10192C523769C1FE544E31FB3C0354EF4116
S1133F20CDFDD6B2CF4FB69F5C3B7344C2B99F7FE1
S1133F30021F0EC2DC5F8D051AA4F111F2008B5B27
S1133F403F739F4B33FECB36E4E67F41B8A7EC4189
S1133F5084DAF0A6F3FD61EA830F370F1F0EDB2B23
S1133F6030BF85FDDA1E360F3F1BC2FB00D8FF1B96
S1133F704E36B4E401864FB131FE57D5FE4720BD1D
S1133F8073BCCE374EEC6D0417EDAF632E1E1C567A
S1133F908DDE865CDC5B3FF8E372F75E3C30211714
S1133FA0A719D49CF32F9F56F14010643B2CD73CA7
S1133FB05CE1DD53F0859B4F9BEC0563230BF7C35A
S1133FC07D971D80B9EF866CBE173488DF38E08F8B
S1133FD0F33FF6F831F726E57476B68C9AB506F712
S1133FE01EDC32FF5761EF069994697B208925E92D
S1133FF052BABD6D49391116AD15F08FBA5BD46E46
S113400057D17ED28976A954336781E6674E1C6600
S1134010CBBC0E32390BF29CD8070BEBF1EFF877DF
S1134020E40693DBE819A4B0009DBFA9BFAC05F773
S113403021C7AD95F259DC9630F90C57D50763408A
S1134040D4450B744332C8E001C05DCE964AE8ED16
S113405053B91F51833627BE0FF0A3BEFD4B0F800B
S11340601B203482FE97F8BF84BF59A5D480CF6D3E
S1134070DC2517C97890567B3EFF4B69E145D8D5BE
S113408087BBD1A323EDC915473977D0782DFEF32B
S1134090E9AF15B7349CFB617491E135F7ED909F5E
S11340A0BF861637E926DDA49B74936ED24DBA49B8
S11340B0E5C9F8EE4B357127FEFB4BEC8192F7E036
S11340C0C7EC7FF56FAD8F7BFA98F8EF4866D6BDE5
S11340D0D2FC1DBC0F61F04A2C5F6DECC75F94AE3F
S11340E08C99F5E7E5836C7182E6BA03E673EC48D4
S11340F0B0F73ECB8541E8CAFFB76756760FCF4D80
S11341007B89E16C223739B3FF0DF603B303CCF797
S113411007BC3FF8EAF8EFC2DF1706BFE0B73E740A
S11341203BBFD9E4E8AD2D8E01FF394770BF72F073
S113413064372FFDA4B5A2F5A0C63F3311E019BF23
S11341409E1EBF49C73331836DF4688EC0E164019C
S11341503E7B1E90D8F3CD6389BEA1DF830162E06C
S1134160FF7833E17D330FC8E1FE05617FB4882019
S11341702F9160390E80B21740FD0BEF5218D86EA4
S1134180EC4FA02F128820BFC30CEE3647FFD6F2A7
S11341907784770AE617A411F9D9C57A90C316E390
S11341A0C70CFE5EC2D177D90254D19BC1DF06DAB7
S11341B088182C91DFB798CBABC73FCC921E98C719
S11341C00BF639C7F050CA73BB9F190E27EFE39C57
S11341D03AC67F07D69E89FBEA09176836FE933EE6
S11341E0FEBB451CAD776101CDBE6E0725CC5A23BD
S11341F01BB9D97A6F909E44C7DEDB5C94CECFA600
S113420029DDE5FCA3FA4A22B8271CB91B2DD10DE0
S11342103F89FB0DBFFB1B7CFFC24400579D2273EB
S1134220F96FBDFCB39E441D96F83BFAF2D1E6C18A
S1134230FC9718C07316F86CFC834EFBF1EF90C327
S1134240C5EC5A0EEF2EC4038432FEBBE0273E2099
S113425096F053B49F49073D778BFD07C06747F538
S113426058DAAF1EFFD6C92FACE744BCC0E86A0FCA
S1134270FC3BC47AFD7C783502F2099F9F79DC0E01
S113428075E7D8122F18AD37CCD08B0459321FC71D
S113429075FC71B11FB11AC88205BEC116542EEF48
S11342A071F476C3DF5FFA1E153565F45E3FAF71B6
S11342B00E356EF535E6FE4B0E9AF8BF821F23C706
S11342C0F82106375AA3167FAAB363FCFFEA70D21B
S11342D0A91ED7D992D669FCAEABA2878BDFA016F4
S11342E0FB7E681B1B9A97AE1C3D96F16BB2156C56
S11342F031173C51E117B0F4A443D6D29B74C0FEED
S1134300E09318BE3DE4F73411EC987592A3E7A04E
S113431059B0B102990F68CAF739FE37D0F2076B6A
S1134320CCF9C74F97E8DD34E735398005CCDC118B
S113433070006934A01EA1F4066CC07EBBAE069862
S11343407355870F193FFA9C6AA3BF9F75D05F43CB
S113435076ADB07E3C709F0ADF35F8A374A08F4F12
S113436075537AC02C70EDFC23C836A8A56F21DEE6
S1134370FB522C2920B0A16EBF12EF2C39327E1FC4
S11343800CFF5FD77FC076A4E56305297117AD2FB5
S1134390AA72F9F15EE347E17E8EF7E001026D1641
S11343A063B8C47F564400CB6DFC67B0071BE20BB7
S11343B00091447F3CFD574D04791EFD4FCE0839D2
S11343C0DCFC12FC826C8DF1D3C66F17AC2F6645F2
S11343D011A688DA0EF636E19796DF4296B907728F
S11343E040E9EB43780DC3098CCE7A9070F73DC950
S11343F0CF3A5B68F1B8BFD4030718F52FFE1CCA87
S1134400359075E75907AC71780E60FEF440E2DA36
S113441069CA679C539E370EC47EB606671DDFF0DB
S1134420D1CBE479C507AE7F0F91C0805832F0CC70
S1134430DFA84757C4CF8A85FB7B84F7C76F34F660
S1134440C93A123709153D087A70ACFC238E3884BA
S11344507EBC403C9B3EEE03974B338607C2DAF5A5
S113446072E17FFB79A5C0AD4C8D3C4AC4ED735B12
S1134470BA58CF8E43E9962D66F0CB043FE1E4AB06
S113448072489981D08F8A20BD9881FB2AB799758B
S1134490B7871731A7AF97AF435F6E5FD2D7113895
S11344A0DBC00DD2C05ECE8135E30F6C051CD0F1AC
S11344B0DE520E2CABD420159F0BF0DA10511F4E98
S11344C03347C20F88685904D015AC5FBF0FE66646
S11344D0957EDE2A74D1B7A40710EE39F8DBB01A42
S11344E00FD6A32E1DAB37EE6FFB627B96C54E6FC6
S11344F0A48A5F66B540AD81B78DA7920A821A4936
S11345008E3B0FF6F8C1A27C27FBE1FD52D4BCDF41
S1134510DB296C3D781C455AEBBF48B8CFC00DF27F
S11345204DCE41E2506B7AF08AE1CE8BD706C1AF13
S1134530A2C60F1A206A23EABF42B2D5629DF9BB14
S1134540E3679AF8CF48609C462C5165795B3A62E0
S1134550816ACA3F7BFC2BFC987FEF768E0FFC9A16
S113456085C8BBF1B7E5D6DC72F9EF3B7AFB91B8AD
S113457027DC662F21DBE49FD6838DAAFDE7C2FCEE
S11345809F15E39FE40D3887239E0795DE05A864F5
S1134590C2DAF5FBC2FDAF32FB1EEFAF432F64E678
S11345A02EA207C202A2B9EF07B0F8C0E3D258B0F6
S11345B0C8BE9F2D4A87F5905E3D2D8B9046CC2535
S11345C0FC7638079DA424D4F5F8D9127BFFC0F5F6
S11345D00C006FB063CA17FEBD9EBF80A86D51F179
S11345E0F93569899FAB9217E6CCB3C5FBDBF2754D
S11345F0AD9FF97AD4D6BCFEDA02BFBE2E7EBBE0F4
S1134600DFCA9BCC1C154F6CDE3C262C38BD6539AB
S113461050EFF1187167AF594FBFC2B7F99BCA1E6B
S113462040D8BEC861EEBDA3EFB207CFECBD2C7C71
S1134630DB4C11416CF3B0499FC1E77488C096FF0D
S1134640A2FC033D0339C8246E9F589FD5DEE51CA8
S1134650443C1EDBF2378BF3994400D5B55F89B92E
S11346602C56E4193F6641B69952EB7DBA53AA859C
S113467065FE0AEB5B72A970F4D45BA9FCFDC3A5CB
S1134680A397587FDA346B369CBDD93C2416B5E623
S1134690FDFDBCF53CCAC257CD94B03B14FC1015CB
S11346A05CC7FF44FC77660EF7B60BB281C3F0ED2E
S11346B083021C4ECA4119FFDDCF11EB9B64F9F64E
S11346C0F1CEE10ECAA75CB5EBF7D3BD87BBD5B776
S11346D0EDAEB0F8DADDF557F4596F7B77FC7F84E3
S11346E054F56D6B5776AD1E7639377C2E8FFDDB16
S11346F091F1E38CF07BFF58A2EF088268BD9A38F1
S1134700BCB27E82B53499B92D5C127892084AEF16
S1134710A182B3557D0ACF038B18F0D38EB106E581
S1134720190ED8BB57FB606E337E4FC3B7DB841FB3
S113473018DD6D4514AE0DC2A9CDF1DFEBF9CF7DC7
S1134740F086B70B44F0648F0ACF5BCFB7141AE03E
S11347507F5279B9B51F941FA5BA08C43676A3440D
S11347607C057B1B5C508F3D029597FCC927E3BFFA
S113477067FFBF47DED126E7D0EACE6388E73A0B6E
S113478090BD0FC4AD17DE7FF529B0347C7EC559CA
S11347903E957170D6A90DA8F581BF59F823610122
S11347A0624D55F60EA1F13A5061FB01EB1BD17F2E
S11347B07F265D42D5EA5DCABFF889F04B11FF55EB
S11347C0F0BBEAD7F3AB7D60B2519A03C77FFF9E7B
S11347D05A2F47104FA63B87C97429FEFB1FCBE312
S11347E0BF23D674FB8F541EB59747D7ECA77C051F
S11347F0209C5B79803EF564841F566FC99BF1B39E
S1134800720BF010FF9D63BE7AB40A941CDA9C8389
S1134810F16A8979C407E33FCB7A1DDC1BE15DFBB8
S113482023C4EE26FC8E74FE73B1472A7DB630880D
S1134830E04700B9C89AA49C492AEB6766A0D188CE
S1134840231A6C320310BE909416D043B455C6EFAD
S1134850BC39C7AFF5C7F6F3B2F6B71CFF9D6A0EB5
S11348607380A78804CCDEA31FEBE2BF27DC839808
S1134870F28DFD9C532FAA19FF5177018DBAE33DA8
S1134880EBF7DFB0BF071B3F6A6E31F877A22F78D2
S1134890A7F38D4871BFC1E7FF829EB002CA74902E
S11348A0A809A87B9E499818E83AFC65CFA792C945
S11348B0E86F47EDF76636505E7B167FFF643C4336
S11348C014E0303B9D89F5B8DCFF96B9671DF81DEF
S11348D04E46821F617759D67BFB1CFF3D60AF2794
S11348E00133DFE5DD278F6DFCF7F228CC094A7A26
S11348F087F76871145A440216EFE31ACDCDDC2D04
S1134900B7373F84BDEFE79F0F37871AFC9B5FC023
S1134910EFF50E9F77D3ACF3C83FE2E8CFB9AC1EF6
S113492011FF5D73065849770C7EEF1F0B8F1E73C2
S1134930710D871BBB3534EFE488EDE337C61BE20A
S1134940A842E34933155F92653988CF2FD9AFE088
S113495099680A0EA89BFF993003E7AFC6ECB1F142
S11349601BE60F673BAA3D0CB9ADB681F90E66ADE7
S11349703C7E37B316E5B795895D95E520B1BA85D8
S1134980C12CE35F6D10669A99D3220779167E20B5
S1134990F009A788E5B2E16DF117B03397DBB49E57
S11349A024F24F3ED1B101D07AD70FD1FB0A730262
S11349B0BE37D6683DAEDB41E172993D2E7B11B026
S11349C0BBF19B4DC38756BC41060B3ADD13BF01B7
S11349D0E87F10435DBBF69304CF4BF0FBB1311578
S11349E0FC9ADC76A3CBF1139D3C954CADF6F3EC2D
S11349F0B369F3298D2184FF4479FE88F75F7B87AF
S1134A003EB069EC279972FC77071F401EFBEEE16C
S1134A1011BF2F0C60D911D3CAB3C737E4B1E7F77C
S1134A2090C7D69BF10FF453BDFE05FE347BCFC077
S1134A30BCE4132CB600FD0DA698FDB6F8D83F3E95
S1134A40A4D6405F7E81395DACBC7F82535719F197
S1134A5069CC3FF48B66BACE7351ADFE12FF1BFBDB
S1134A6058E2F707EBAFC4D18B45C0F1DFC3B79B66
S1134A7087E12BFAF9CAC97F0DF6DFB280EC0EF399
S1134A808FED025EC442357F5718FCC0DFE3553B0F
S1134A90E1F8C4ED0EA1F1FE92CBC8317EC6B3019C
S1134AA097DB6B23ACDC6C047899CD0153AD0F0F0D
S1134AB0993380B3E7B10F9D3A7DF20B4F7B829F10
S1134AC0C2528C075713FF5DFA13ADFE920BF0032D
S1134AD0FE84DDDBC4F90E3218E060FFD248423FA9
S1134AE03757E0BF92C5BD0A5E01FFE43C7CEBB8DA
S1134AF0FB9C5BFFE5DA7B27BF2E9FB1DF3339F4E4
S1134B00DC762FBDD178D6961528E21638DFC3B5EA
S1134B10B19BC1BBAE0F5D3D082C7CBE181D8E3110
S1134B208ABAE82FB96C1A049B2B30D8256E7DFB0A
S1134B3098D691C355F8E3EC39E25058E4ABC4BFBE
S1134B40AEBEAD4FABAF6CDCA215E2BFB30751B93B
S1134B508B4639BDADFDA39BB4B0C0DBC387C3D5C1
S1134B60E2AFA1FEEA46B63E74E75FCBCC43EA5E11
S1134B7098E0AE1AD0CA2D9396BB8A34CDDB491A7D
S1134B80DF9B4F1181BEE91CC15ECA850D86E98E8B
S1134B90B3B4D7E3DBDB1F19FFDD78301B68F67D88
S1134BA07E99DAC7D2FBCA7AD05D5A6C48BE509758
S1134BB06EF2C23CB09E285C4B4702EB3BEAAECAA5
S1134BC0C1067F3FC9D6485A3E458ABDC35FA71078
S1134BD039B016AE92DE40A236ACCA9DF17F2FECFE
S1134BE07F788FE2B5A4C3ED7F4988BD8276BB0A86
S1134BF0FF1DFD1FC60EB1DED5B9FBABCBF23A9259
S1134C009ED5B4E7B2F7A35D48C302262BF4C09245
S1134C10CE3AABD9609822EE9BDE6BDAAFE46FC775
S1134C20FFF7F8FF44FCF7F10FF004B00A0BFCE3C4
S1134C3098FBE1DC77C6C7E4B3AAFD217D1C037FA2
S1134C40A1F547D6C38AD16F3FD66F825DEBEBCE19
S1134C50FD6FD24DBA4937E926DDA49B74933E36E5
S1134C6061D673D60956F6DAF4B74EB2EB76C62798
S1134C7010671DF7D5F3DF3E8DFFD3DC03C00ADADE
S1134C805BEFCB1327CF759282CC32F7DA27C2E0E1
S1134C9059CD07A0F583B7DA3CD8EC9D901586A9C9
S1134CA05B0DC8CD331B3B9EBD17775CE7D0F07816
S1134CB02C7EBB262B5ACFFCF47F15EF0184BB2737
S1134CC01E04E4ECD7C906847F7F7524DC7F57FE7D
S1134CD0FDA68DD7CEFC61E17EEB237F2F34D8EC8B
S1134CE00B6B9435387693F70DE30E0C70C402E524
S1134CF05368650D588FC7B885B161D8FFB293FE6C
S1134D00E19B338B24D147138E3A6DD9286E36C07C
S1134D107B7F86B56FF83C0E36607C3FCC9803668B
S1134D20B864FA1D40B0EF2D7E96FBBDD3D7AF61BA
S1134D30C1205DE798DDF6813D6CAAEFCF430330D7
S1134D400FA1C14E7FC7780FD0F3BF81A03DF730CC
S1134D50DE1B8EA50D6BA2E018BFF38FADAC3C60DB
S1134D6071328E8A3EC0F8DE3416B0F01DE1FF5673
S1134D70AB3F476F9D09F68D37E06D4A34579DB4BC
S1134D80FF7BF11A011B02FBBBC6F2E31FC80654EA
S1134D9016C0B1BA19BF1DC3BF9758CCBAD2C11E31
S1134DA002FA3B7DF07E6D04F736787C0EF797AD02
S1134DB006F68145EEA8D9478603DC13FF0B5BF9A1
S1134DC067825F0F1E1135F2B84183368F881B123C
S1134DD0C55D4ED074F7A72D03597A9FAD9EB59E3D
S1134DE0200B549E3811B5BBC1BC7DFF121C6EEF65
S1134DF0322A3CB6009D176FC8439AECE69D8D029B
S1134E003FFE496B4160EF49DDA3DF070F78DD709A
S1134E10B1B5DE1FC47787781140D4F016FB90B982
S1134E201A3C50F31F2CFA730B3AAE1EB7465A1FA6
S1134E3020327A0BF31F08565FD9582A615ADE7E56
S1134E40210DAF1F57238C00623722ADF300239C42
S1134E5063D81DD9CF31F8DF3B431B8F4337830021
S1134E605B5B38FB51E1BF13EC25A6B716FFB5C257
S1134E709BC1F70364298F4B4412E7FE44210FCEF4
S1134E8036F00BE6F8B5472DEE8BB795EC05A08709
S1134E90DE5A460EF1E781BFE8E4C1E0130DC039E4
S1134EA0173F2075A3C12375FC0BEB6FC3CFD75FEE
S1134EB0F9A6FD69FD37306F3B97A8853C8EF4E475
S1134EC02C5577FF1177E5A8F4571EF38DE187641D
S1134ED0FDAD8DE6A0BB0300AE3EDF801B30E7FFD7
S1134EE01D4603B467F6E0A2A801C80BEB3FFE9190
S1134EF0E41181867D41507FA0BAFD0DFC10EDDDEB
S1134F00E097E267F57847891F7A3F788A9188EDC0
S1134F10F59390A389EF702C778DBCD5606141180F
S1134F200D80FEA65203BEF7F064C79C3D8D9FD84A
S1134F30081868C7E57D184E4C844309C65E90097D
S1134F40EB526EE0E8FC77C8BD3B5939E2CE947071
S1134F506874D6C3FACFBC77267A3B2CE09D78726E
S1134F60324C7EC52C103D3EE469163A68BCA19EC5
S1134F707F20BD07FDAD573E83E5336BC18FEABF8C
S1134F807522B1C09B070EF8A53666BC7079CF3A7E
S1134F9018C15DF007E2C8033FEBA3C963B2A08365
S1134FA04D750EE0C9496B0382C29B95D63FDED393
S1134FB0E28FF84588B81C66D61F849EBF2FA58350
S1134FC081C9B12B33449FF4727D141589E00E0915
S1134FD0923CA2569FB337A701FCF868E2C088BC94
S1134FE0F8B092CFB01DF4005AFE3FD0077E54FFB4
S1134FF007D29E5DF083E7EF6AE1E7B70A1B419EA3
S1135000A51D3CE98B54C137B16109A2C123E5193F
S11350102CD6DDC06A565CFC945804C11E4955FC6C
S1135020E9DBE16F600388D8DE2CA2775B8380998B
S1135030DBE327BA9D08F1B60FEE7D74392F3D935B
S11350407B3CDA35946758FBD67F83C7EB0083AB90
S11350500241F11E21F2D403ECC5C60F18D6919A71
S1135060F2690E508CF7DED32864EEBC33FA7AFC76
S11350709341158C5DC37CE75C52B793EC30ABB2C3
S1135080D708E4006BDC04FA4A0DD8E739E3B743E8
S1135090F80103C66F4FBF9715DEDE30EC6DB0012B
S11350A0709B57EECE6B6403D84F2AD673F1D38628
S11350B029DDF51E0FAC1777AEE1FB83E70E47E25F
S11350C00B4E1F0371C6AC7FF6FC21FE633016281D
S11350D03964C04F58F7A8FBB5427A51ADEEE03EB3
S11350E00B73F8BDCC43983FAA979E6B702016882B
S11350F0B990EB2D28583F58F79BA43D383B9E9A16
S11351007F2149B8DF9BC2BECD5DA34F274BD61389
S11351105DAE15EED1AB2DFF3F329E439807A2E65C
S1135120002EE42F66C9D1FC06D840BB8700E6F008
S11351302DC3BC8F56D05E721069B439F75B2C5EF8
S11351401FFD46A5C01822F5E7787F76CEBD8617E9
S11351500CC347FB3F5C73B898AD5D6E0C4E9FB8B3
S1135160DE2301777BC772B773E30FC4E9FEE53230
S1135170777CC107D2D781B7244FB38801FB30763F
S1135180B84B26F871CB4B7925E46E013DCC7BDE20
S11351903F068FB4D5D332B77FA94154B8B7FD8544
S11351A03CC7011DE00E7A907A4EF50F26A5ACF9A6
S11351B0BD3C9926C7AEFE9FA507C4E863668F8EE3
S11351C0A58BFF11E8BF31F072EB53C845DEE3F75E
S11351D05FA3F7D7AF5D6C0A6DD4289E45DFCAAED6
S11351E0FA574AEF1FCB79086BBF9DB772F0B957D6
S11351F04030470CCFEAE1CF54BAFB1922B3A0C127
S1135200849C220AA0EBFD57FF4EFBB69F6F1784C8
S1135210FD30E228A06E673054E73DF13EBD3565B0
S11352205F142BF80F17CEEE780FDCFDF6AE7BFD86
S113523089EF723FDF19927C57DF86261DF87F6164
S1135240B67E16301FFBAA2F3E61F46557ACCF071C
S1135250897F9EEFD02757FDC314ECBF267B1E70B9
S1135260B53EFF4EF51FB68BAD73C470DDA0070CC1
S11352704CCDEEBF4D5B8C7E942276387B7E50F114
S1135280FEE7A5E7D157A8F907643F88240D46B97E
S11352904B04469B0BA2FE21FABB8BF76A9BC67B91
S11352A0EB6FC1030483B0BDCB3124957904D9FBE2
S11352B08E65F062052BACFF30754150BC06DCCA2C
S11352C0268F8501EC8ADFB4F3BEB3C916F4BE732E
S11352D02BBBC5DE64F4D2401F98B77A647B6902A5
S11352E0FC10FDF9DFA94F00D97AD6D8762F3AED14
S11352F0ACFACF4050DB8611FB3BFA0A7D077ABE3D
S1135300F30EFB0D7090373A308BB3DDC5290E9840
S1135310FF6E1C10484376FD15E7D1F78EC63F7823
S113532047DA19F0A403FCD60F053744AF0B32ED6E
S1135330EEA5297FD43411841B03F13AA09745AA22
S113534018FF219609F4FE71C56106E8FFB6FD1F3A
S113535013E67FB67B6D6EBDE88393FFAAC53FB9A4
S11353607DF51F92F376C6B1DBC142FB6A5DE5BBF6
S1135370C3949E23E6277C7EC0EB07E7F255FD79B4
S11353804BE9FD659E4BDF1F50DBEF4BEC7739BFDC
S113539054CB32F74F560CEB6FD9F7CF33C4816D32
S11353A02ACFE0C67BF140FC765432E1E28D9F695E
S11353B0A34F4B0AC1FE34CC67F6C1A9D65D12E2F5
S11353C07EB217AAC7729A23374174B2FE6FABFF3D
S11353D050FD073080A3F4A203AF2B2DE0DF4B3E3A
S11353E0D7F600934FA37FD7CCE237635E31330FF8
S11353F0915AB496FD1C7D65F18FB23A8F3C49B643
S1135400FECFD0C3E90C3FF70EFC4151EC1C8BEFEF
S113541026973904471C40E45FF61E20F14B844B69
S1135420AEC1DFEFAD993937217822BE1702F607F6
S1135430E7B07EE805E6EECE2DCE69AD70DD010065
S113544087B406AF9D3DF41E81C30812DEBEF87F0B
S1135450D6FE5B98357EF447FE00AB7FF077C87EBE
S11354607F1BFD37E509F8EDE88B66BA3145B912C3
S1135470C71BB968BDCF60BF07D683D23DE3758132
S11354807D4238F158246A443210D4309BD4EF1F43
S1135490B20E3D780C60EC7BE24D061AE819FCA1D3
S11354A089FC62A2F864B212D56A2FD2F1608767D0
S11354B0115887BAE22FEBA6A6D93FBA45B308ED37
S11354C00814DE5EFBA2F945721E64C9B49DC90EC0
S11354D04093A3786BFB7FC63FDB98B63379B686DF
S11354E0CD426FFDA8EF26955DA7F6BFC97EEBC040
S11354F06477C98173E1351BF61049EF23B905A61A
S1135500F74060BD48F1CD21F344979B6A04B16B29
S1135510232CFE5B999F0B1BDB8DFFCB658E7632B4
S1135520F122E539CD1E24079C1CAD1584FB68933C
S1135530AD48EBFF50F6F0936198521F0C5F8A3D23
S1135540609038DD610B7FD3CC78F577BE31DC1801
S1135550BAC640C2FE33E61E0FC902641EB4E51C7F
S113556083777E632133BE80C81A5CE2A89BFDBEAC
S1135570FEDC9F94D31A02CC4BB0EEA5DDAD120332
S11355800A119C69D428E049E07D273E72C63FB5E4
S113559027F68DA3EAE14EF679D670D8BF0A6F4F8D
S11355A01E379FB205643B5972EC863EE43FFFA769
S11355B0805B2E8F01879497E3EEC723ACFD0879B7
S11355C0C49F4F5660D0F2A9719F67FEB8C799EB8C
S11355D0FD574B12B9D367B6F57B0EFD87B43EF188
S11355E0BA702B8B8F56BB051CA660FE7A85378A52
S11355F01D7DEFF21EC4D0C61DE779C8C83FD19FF8
S113560041A0FD6D645B197C7F6C4D932118DC9B7C
S1135610872EBBD001E1DFFCA7C9E3F6B0C531E0BA
S1135620DD18FC93BF6BFE53C8D8D363D630EE713C
S1135630E4EDFE9BC7F74936872E3B784186D5A318
S1135640B9F7D2933324EDF93312F55FC7E8013C7F
S11356503383477FE0A6BDF421C8C5F5F4C84833B9
S1135660FB1B76B36C0B4AD9DB5B59F85DB82F751D
S1135670BF73B879C831C01D7B00C6F0F021E3EFD9
S1135680D67773FF4F96F339DB4DF29B3073B52019
S11356903EC335E74E881D20B780F55A849989F8B2
S11356A0855BAFBF77F52222FD3D6A5C7C86CB2704
S11356B017EDAD16829B1EB95F4A8A9CF8A270C989
S11356C0C5EE1B602D87BE8039D88E1846FF3B90EF
S11356D013EEBF63ECF8DBF01A626D2EBCBD8A07D3
S11356E0051BF59C75C9B4B75716C9608ED3C33B67
S11356F0D693AAD6FF0E98FBF563F1FD2079ADC2CF
S1135700A446E406F1DEE18EFF720A389F55F330B9
S1135710EC7D670EF4E4D30DDC04DA0FF72FE0C957
S1135720C7F5EC637F92C36FC4C731B86D6EF739A8
S1135730129C8BFDD2ACE94D6CBC3E8101E4F2EECF
S1135740622941BA4AAFFD67F25999BF733D9FD5AB
S1135750BD00F0ECE553DCEA719343CF6177315C33
S11357604BFC98C8A57F363FC7F36F69F1017A10E7
S11357705A0B696EBDDFA49B74936ED24DBA493740
S1135780E926DDA4FFF113E6BC679FEA7C3EFF3502
S1135790533CAAEC72F9B2EA4C65E552E9C627FF1C
S11357A0B67A7C6C3AEBD895F3DFA67C44BEC4FD94
S11357B04BD7DD5396BD6D992CA1AC021C6C20C84F
S11357C096F09BEFFD57543B68F1289EC6D3AB5D22
S11357D0DC383B2D1AD3B888A7E302D12FAADFD235
S11357E06FD358E5C735CC2AEC3111774F16AB3F50
S11357F09D064BB9A441BACAD90512E23E57DF3619
S11358008F93FCF3E3EA5B441276CF635183ABECF2
S11358109E8738F118C6F2E5BA03711B6542B636A5
S1135820088E117B45BBFF1166F1B431AD7E0BFCD4
S1135830C6845DAD88CF2D7EF89732F978342E1A60
S1135840E7ED6E6D149F902C3F8D82AC62D4EAD646
S1135850C812CAF1A7F79ED68C06A7A441E39A06FC
S1135860F15457135F0F257AB7C45E0FB3AF9DF0A1
S1135870FB9A19C3CC20EFE1114E9F4B0EB020A32D
S1135880410F1A4C1EBBC8E3EC7C7B140EEDB33DF8
S11358906A1CB99C7E59F9C960321079F6A6AFB07A
S11358A000A05E9BB6A8AF6E8C809DC190F06B7714
S11358B01B68C91FDC858A478CF1F47D4612C598A4
S11358C01EFB3D1EDDEAC6FC6F6516108F807AABA9
S11358D07B7F148F8CF5B07C8D34104B287F8BAF7D
S11358E087F07A6AF0CB13E6DFE92D6013671FF9BE
S11358F0565E7DB5FE161856DFC20B8CDB0988F8A0
S11359000C601F00B9B0C13DB50571F49D697C14EC
S11359101E4BFBC777FA5D7DFE69E459F23E7D0FAD
S1135920868D41F33C565810B5BD736084B1FA17A7
S1135930F89D54BAFC6FE71F9287147A09C2BA80A3
S1135940B5505F405F18076AC5FBAC86FEBFB4075D
S1135950102B210D46497EDD822ABBC0FFBEA20763
S1135960007EF0BB40EDAEB3EE8C5F73181DA2DF7A
S1135970F8790436B8B4E20D92DF7168C1A201CAA5
S11359809E5B502F3A6C1E6B64C32C60C4D1826B37
S113599047E1F0D188AD61A88CFF783BC826475613
S11359A01E56B03DDA116B281D03C214F871ED7355
S11359B0AF3BAF7DC2ED56B741751F7FB0FDC5A3A8
S11359C0FB27D45E09A19A48F1F81F9F538B2E68D8
S11359D03C9A4A4FF2E1776789A2D2ADF1CCE1BAA1
S11359E006C8B151DA0358FC706600367F74B8C932
S11359F0F825CA1B743B43F6F9F22A48A343C84D61
S1135A001E033F973940C2A5ED0CABAFC482AE462E
S1135A10CDE116FD4D930362808543BF5F1BEC4CC3
S1135A20D16F6F8F9AE7B523F99BCA03492AFF37D1
S1135A3026F907A3DA60FB04D6A39327FC47356A4B
S1135A40AD4001757E5FF0438B2CF06F65F811EE6D
S1135A506401B011418D701F8DF9538DFF06E90F5C
S1135A60EB104BAF3FFA85054D4F250742BF561A41
S1135A7047A2C9F8C1834774885A471F9028628F88
S1135A80D9246306DAADC8A30D6F911D6D39C4FF27
S1135A909C74D0FF4003D802F2C258A0C17FFC8C92
S1135AA09EBD1AF7DE8D416D101F0518018EFC9EF8
S1135AB077E0F51565F7112FC68C1BD40FE0D3647E
S1135AC0C0115CFAE5518C69DE366A006B466F3CA6
S1135AD0C72FE63BA1C086EAFF2FF643FC3F466C86
S1135AE02B454DE458FE3ECBF33CF0E4437361D8C0
S1135AF00F95CF71876A5CFE750D685429E93F9054
S1135B0030DE6E1002C02F31F8250E0C5019B1D1C1
S1135B106F0035E412661B60F4ABF1C7BA0D25FEC5
S1135B203C120DAE4641269EA4CA6525FAABE9AFE8
S1135B30E1459F7FC68605A09087A7122B0FFFED36
S1135B40583DD03A406E8295494B0F40ED2F8D97CA
S1135B506ABFB1843FF0F9C09BA39738C1FF6C982A
S1135B6079A3CCE2D0A2318753B47E9A798277525A
S1135B702B963560F429A7FB8A283232EB42DB5B93
S1135B8037F805E946CFE106397BFDE3B68B5924A6
S1135B90B75FCF89838A5B1B498E9B136C41AF240B
S1135BA00E828EC3616EBC337A8423B5D9403EAB7A
S1135BB06EF044B7D9DF456F7264E5BDBE5890DC22
S1135BC000592B5D03483D8729F5E4DC5EB9CDB36C
S1135BD045D87FFBF00820EDB761E6EEF829964042
S1135BE0E3FF28FE40DF8124F6C2B726D01360FD10
S1135BF0315A8C08F4DB077B0F9BC4FB93F4FE162D
S1135C003F7862D1AFC2C17741FBC7CAC1C83BB2BA
S1135C10A0C56290836810F0E7720B8AB2BB2F4D67
S1135C20DC8EFEF819BD731FF301B47D947FF76514
S1135C305492C31ACB4BFCE753963FEB883CF6B225
S1135C40CAE5B1E7C22B77AE6FB680C2B65F79AF53
S1135C500F6368F1B723017F9D401A1655863F49AB
S1135C601984836C5E32D61485B53C0D06E86BFD51
S1135C706BB51F9A98A4E5B29264D70992884096AE
S1135C80E47627532B2FAD78AE414F7A900D55FB18
S1135C9047ACD27B2F81944483A5F69BC12AEEBEE8
S1135CA0C0CF52E9DB2CFF42E479CC80371FCE9180
S1135CB063DAAAF60050D7930EB75DD3E3DBB7C718
S1135CC0F8F0212B462BA77AFE52EE7DD44C7B06AE
S1135CD087FC932FD9763EF8068BFF31972E16ADAD
S1135CE05F87BE68811DAF2497F8735803E02F3A8D
